{
  "_format": "hh-sol-artifact-1",
  "contractName": "Doctors",
  "sourceName": "contracts/Doctors.sol",
  "abi": [
    {
      "inputs": [
        {
          "internalType": "string",
          "name": "_docId",
          "type": "string"
        },
        {
          "internalType": "string",
          "name": "_hospital",
          "type": "string"
        }
      ],
      "name": "addDocHospital",
      "outputs": [],
      "stateMutability": "nonpayable",
      "type": "function"
    },
    {
      "inputs": [
        {
          "internalType": "string",
          "name": "_docId",
          "type": "string"
        },
        {
          "internalType": "string",
          "name": "_name",
          "type": "string"
        }
      ],
      "name": "addDocName",
      "outputs": [],
      "stateMutability": "nonpayable",
      "type": "function"
    },
    {
      "inputs": [
        {
          "internalType": "string",
          "name": "_docId",
          "type": "string"
        },
        {
          "internalType": "string",
          "name": "_speciality",
          "type": "string"
        }
      ],
      "name": "addDocSpeciality",
      "outputs": [],
      "stateMutability": "nonpayable",
      "type": "function"
    },
    {
      "inputs": [
        {
          "internalType": "string",
          "name": "_docId",
          "type": "string"
        }
      ],
      "name": "getDocHospital",
      "outputs": [
        {
          "internalType": "string",
          "name": "",
          "type": "string"
        }
      ],
      "stateMutability": "view",
      "type": "function"
    },
    {
      "inputs": [
        {
          "internalType": "string",
          "name": "_docId",
          "type": "string"
        }
      ],
      "name": "getDocName",
      "outputs": [
        {
          "internalType": "string",
          "name": "",
          "type": "string"
        }
      ],
      "stateMutability": "view",
      "type": "function"
    },
    {
      "inputs": [
        {
          "internalType": "string",
          "name": "_docId",
          "type": "string"
        }
      ],
      "name": "getDocSpeciality",
      "outputs": [
        {
          "internalType": "string",
          "name": "",
          "type": "string"
        }
      ],
      "stateMutability": "view",
      "type": "function"
    }
  ],
  "bytecode": "0x608060405234801561001057600080fd5b50610a2a806100206000396000f3fe608060405234801561001057600080fd5b50600436106100625760003560e01c806307149384146100675780631de11e58146100835780632d8318ec146100b35780637d2a521a146100e3578063aa552991146100ff578063f798d4021461012f575b600080fd5b610081600480360381019061007c9190610557565b61014b565b005b61009d600480360381019061009891906105cf565b61017e565b6040516100aa9190610697565b60405180910390f35b6100cd60048036038101906100c891906105cf565b610231565b6040516100da9190610697565b60405180910390f35b6100fd60048036038101906100f89190610557565b6102e4565b005b610119600480360381019061011491906105cf565b610317565b6040516101269190610697565b60405180910390f35b61014960048036038101906101449190610557565b6103ca565b005b8060008360405161015c91906106f5565b908152602001604051809103902060010190816101799190610922565b505050565b606060008260405161019091906106f5565b908152602001604051809103902060020180546101ac9061073b565b80601f01602080910402602001604051908101604052809291908181526020018280546101d89061073b565b80156102255780601f106101fa57610100808354040283529160200191610225565b820191906000526020600020905b81548152906001019060200180831161020857829003601f168201915b50505050509050919050565b606060008260405161024391906106f5565b9081526020016040518091039020600001805461025f9061073b565b80601f016020809104026020016040519081016040528092919081815260200182805461028b9061073b565b80156102d85780601f106102ad576101008083540402835291602001916102d8565b820191906000526020600020905b8154815290600101906020018083116102bb57829003601f168201915b50505050509050919050565b806000836040516102f591906106f5565b908152602001604051809103902060000190816103129190610922565b505050565b606060008260405161032991906106f5565b908152602001604051809103902060010180546103459061073b565b80601f01602080910402602001604051908101604052809291908181526020018280546103719061073b565b80156103be5780601f10610393576101008083540402835291602001916103be565b820191906000526020600020905b8154815290600101906020018083116103a157829003601f168201915b50505050509050919050565b806000836040516103db91906106f5565b908152602001604051809103902060020190816103f89190610922565b505050565b6000604051905090565b600080fd5b600080fd5b600080fd5b600080fd5b6000601f19601f8301169050919050565b7f4e487b7100000000000000000000000000000000000000000000000000000000600052604160045260246000fd5b6104648261041b565b810181811067ffffffffffffffff821117156104835761048261042c565b5b80604052505050565b60006104966103fd565b90506104a2828261045b565b919050565b600067ffffffffffffffff8211156104c2576104c161042c565b5b6104cb8261041b565b9050602081019050919050565b82818337600083830152505050565b60006104fa6104f5846104a7565b61048c565b90508281526020810184848401111561051657610515610416565b5b6105218482856104d8565b509392505050565b600082601f83011261053e5761053d610411565b5b813561054e8482602086016104e7565b91505092915050565b6000806040838503121561056e5761056d610407565b5b600083013567ffffffffffffffff81111561058c5761058b61040c565b5b61059885828601610529565b925050602083013567ffffffffffffffff8111156105b9576105b861040c565b5b6105c585828601610529565b9150509250929050565b6000602082840312156105e5576105e4610407565b5b600082013567ffffffffffffffff8111156106035761060261040c565b5b61060f84828501610529565b91505092915050565b600081519050919050565b600082825260208201905092915050565b60005b83811015610652578082015181840152602081019050610637565b60008484015250505050565b600061066982610618565b6106738185610623565b9350610683818560208601610634565b61068c8161041b565b840191505092915050565b600060208201905081810360008301526106b1818461065e565b905092915050565b600081905092915050565b60006106cf82610618565b6106d981856106b9565b93506106e9818560208601610634565b80840191505092915050565b600061070182846106c4565b915081905092915050565b7f4e487b7100000000000000000000000000000000000000000000000000000000600052602260045260246000fd5b6000600282049050600182168061075357607f821691505b6020821081036107665761076561070c565b5b50919050565b60008190508160005260206000209050919050565b60006020601f8301049050919050565b600082821b905092915050565b6000600883026107ce7fffffffffffffffffffffffffffffffffffffffffffffffffffffffffffffffff82610791565b6107d88683610791565b95508019841693508086168417925050509392505050565b6000819050919050565b6000819050919050565b600061081f61081a610815846107f0565b6107fa565b6107f0565b9050919050565b6000819050919050565b61083983610804565b61084d61084582610826565b84845461079e565b825550505050565b600090565b610862610855565b61086d818484610830565b505050565b5b818110156108915761088660008261085a565b600181019050610873565b5050565b601f8211156108d6576108a78161076c565b6108b084610781565b810160208510156108bf578190505b6108d36108cb85610781565b830182610872565b50505b505050565b600082821c905092915050565b60006108f9600019846008026108db565b1980831691505092915050565b600061091283836108e8565b9150826002028217905092915050565b61092b82610618565b67ffffffffffffffff8111156109445761094361042c565b5b61094e825461073b565b610959828285610895565b600060209050601f83116001811461098c576000841561097a578287015190505b6109848582610906565b8655506109ec565b601f19841661099a8661076c565b60005b828110156109c25784890151825560018201915060208501945060208101905061099d565b868310156109df57848901516109db601f8916826108e8565b8355505b6001600288020188555050505b50505050505056fea2646970667358221220477caef155d5a281373b6ae0c95a77184ff691501882b058bfd59654aa01592f64736f6c63430008130033",
  "linkReferences": {},
  "deployedLinkReferences": {}
}