{"contracts/Patients.sol":{"Patients":{"abi":[{"inputs":[{"internalType":"string","name":"_patientId","type":"string"},{"internalType":"string","name":"_allergy","type":"string"}],"name":"addPatientAllergies","outputs":[],"stateMutability":"nonpayable","type":"function"},{"inputs":[{"internalType":"string","name":"_patientId","type":"string"},{"internalType":"string","name":"_bloodGroup","type":"string"}],"name":"addPatientBloodGroup","outputs":[],"stateMutability":"nonpayable","type":"function"},{"inputs":[{"internalType":"string","name":"_patientId","type":"string"},{"internalType":"string","name":"_patientDateOfBirth","type":"string"}],"name":"addPatientDateOfBirth","outputs":[],"stateMutability":"nonpayable","type":"function"},{"inputs":[{"internalType":"string","name":"_patientId","type":"string"},{"internalType":"string","name":"_patientEmail","type":"string"}],"name":"addPatientEmail","outputs":[],"stateMutability":"nonpayable","type":"function"},{"inputs":[{"internalType":"string","name":"_patientId","type":"string"},{"internalType":"string","name":"_patientGender","type":"string"}],"name":"addPatientGender","outputs":[],"stateMutability":"nonpayable","type":"function"},{"inputs":[{"internalType":"string","name":"_patientId","type":"string"},{"internalType":"string","name":"_name","type":"string"}],"name":"addPatientName","outputs":[],"stateMutability":"nonpayable","type":"function"},{"inputs":[{"internalType":"string","name":"_patientId","type":"string"},{"internalType":"string","name":"_patientRollNumber","type":"string"}],"name":"addPatientRollNumber","outputs":[],"stateMutability":"nonpayable","type":"function"},{"inputs":[{"internalType":"string","name":"_patientId","type":"string"}],"name":"getPatientAllergies","outputs":[{"internalType":"string","name":"","type":"string"}],"stateMutability":"view","type":"function"},{"inputs":[{"internalType":"string","name":"_patientId","type":"string"}],"name":"getPatientBloodGroup","outputs":[{"internalType":"string","name":"","type":"string"}],"stateMutability":"view","type":"function"},{"inputs":[{"internalType":"string","name":"_patientId","type":"string"}],"name":"getPatientDateOfBirth","outputs":[{"internalType":"string","name":"","type":"string"}],"stateMutability":"view","type":"function"},{"inputs":[{"internalType":"string","name":"_patientId","type":"string"}],"name":"getPatientEmail","outputs":[{"internalType":"string","name":"","type":"string"}],"stateMutability":"view","type":"function"},{"inputs":[{"internalType":"string","name":"_patientId","type":"string"}],"name":"getPatientGender","outputs":[{"internalType":"string","name":"","type":"string"}],"stateMutability":"view","type":"function"},{"inputs":[{"internalType":"string","name":"_patientId","type":"string"}],"name":"getPatientName","outputs":[{"internalType":"string","name":"","type":"string"}],"stateMutability":"view","type":"function"},{"inputs":[{"internalType":"string","name":"_patientId","type":"string"}],"name":"getPatientRollNumber","outputs":[{"internalType":"string","name":"","type":"string"}],"stateMutability":"view","type":"function"}],"evm":{"bytecode":{"linkReferences":{},"object":"608060405234801561001057600080fd5b50610f7a806100206000396000f3fe608060405234801561001057600080fd5b50600436106100ea5760003560e01c80638e28794b1161008c578063a30f41d411610066578063a30f41d41461026b578063d19d5b831461029b578063d5d38589146102cb578063ffdbc055146102e7576100ea565b80638e28794b146101ef57806395e587f51461021f578063a1f058c71461024f576100ea565b806325c723d3116100c857806325c723d3146101575780633ba1e7fe146101875780634d1ffa9a146101a35780636df36bc6146101bf576100ea565b806303c8fc10146100ef578063153474b91461011f578063173e72b71461013b575b600080fd5b61010960048036038101906101049190610aa7565b610303565b6040516101169190610b6f565b60405180910390f35b61013960048036038101906101349190610b91565b6103b6565b005b61015560048036038101906101509190610b91565b6103e9565b005b610171600480360381019061016c9190610aa7565b61041c565b60405161017e9190610b6f565b60405180910390f35b6101a1600480360381019061019c9190610b91565b6104cf565b005b6101bd60048036038101906101b89190610b91565b610502565b005b6101d960048036038101906101d49190610aa7565b610535565b6040516101e69190610b6f565b60405180910390f35b61020960048036038101906102049190610aa7565b6105e8565b6040516102169190610b6f565b60405180910390f35b61023960048036038101906102349190610aa7565b61069b565b6040516102469190610b6f565b60405180910390f35b61026960048036038101906102649190610b91565b61074e565b005b61028560048036038101906102809190610aa7565b610781565b6040516102929190610b6f565b60405180910390f35b6102b560048036038101906102b09190610aa7565b610834565b6040516102c29190610b6f565b60405180910390f35b6102e560048036038101906102e09190610b91565b6108e7565b005b61030160048036038101906102fc9190610b91565b61091a565b005b60606000826040516103159190610c45565b9081526020016040518091039020600201805461033190610c8b565b80601f016020809104026020016040519081016040528092919081815260200182805461035d90610c8b565b80156103aa5780601f1061037f576101008083540402835291602001916103aa565b820191906000526020600020905b81548152906001019060200180831161038d57829003601f168201915b50505050509050919050565b806000836040516103c79190610c45565b908152602001604051809103902060050190816103e49190610e72565b505050565b806000836040516103fa9190610c45565b908152602001604051809103902060060190816104179190610e72565b505050565b606060008260405161042e9190610c45565b9081526020016040518091039020600301805461044a90610c8b565b80601f016020809104026020016040519081016040528092919081815260200182805461047690610c8b565b80156104c35780601f10610498576101008083540402835291602001916104c3565b820191906000526020600020905b8154815290600101906020018083116104a657829003601f168201915b50505050509050919050565b806000836040516104e09190610c45565b908152602001604051809103902060030190816104fd9190610e72565b505050565b806000836040516105139190610c45565b908152602001604051809103902060020190816105309190610e72565b505050565b60606000826040516105479190610c45565b9081526020016040518091039020600501805461056390610c8b565b80601f016020809104026020016040519081016040528092919081815260200182805461058f90610c8b565b80156105dc5780601f106105b1576101008083540402835291602001916105dc565b820191906000526020600020905b8154815290600101906020018083116105bf57829003601f168201915b50505050509050919050565b60606000826040516105fa9190610c45565b9081526020016040518091039020600101805461061690610c8b565b80601f016020809104026020016040519081016040528092919081815260200182805461064290610c8b565b801561068f5780601f106106645761010080835404028352916020019161068f565b820191906000526020600020905b81548152906001019060200180831161067257829003601f168201915b50505050509050919050565b60606000826040516106ad9190610c45565b908152602001604051809103902060000180546106c990610c8b565b80601f01602080910402602001604051908101604052809291908181526020018280546106f590610c8b565b80156107425780601f1061071757610100808354040283529160200191610742565b820191906000526020600020905b81548152906001019060200180831161072557829003601f168201915b50505050509050919050565b8060008360405161075f9190610c45565b9081526020016040518091039020600401908161077c9190610e72565b505050565b60606000826040516107939190610c45565b908152602001604051809103902060060180546107af90610c8b565b80601f01602080910402602001604051908101604052809291908181526020018280546107db90610c8b565b80156108285780601f106107fd57610100808354040283529160200191610828565b820191906000526020600020905b81548152906001019060200180831161080b57829003601f168201915b50505050509050919050565b60606000826040516108469190610c45565b9081526020016040518091039020600401805461086290610c8b565b80601f016020809104026020016040519081016040528092919081815260200182805461088e90610c8b565b80156108db5780601f106108b0576101008083540402835291602001916108db565b820191906000526020600020905b8154815290600101906020018083116108be57829003601f168201915b50505050509050919050565b806000836040516108f89190610c45565b908152602001604051809103902060010190816109159190610e72565b505050565b8060008360405161092b9190610c45565b908152602001604051809103902060000190816109489190610e72565b505050565b6000604051905090565b600080fd5b600080fd5b600080fd5b600080fd5b6000601f19601f8301169050919050565b7f4e487b7100000000000000000000000000000000000000000000000000000000600052604160045260246000fd5b6109b48261096b565b810181811067ffffffffffffffff821117156109d3576109d261097c565b5b80604052505050565b60006109e661094d565b90506109f282826109ab565b919050565b600067ffffffffffffffff821115610a1257610a1161097c565b5b610a1b8261096b565b9050602081019050919050565b82818337600083830152505050565b6000610a4a610a45846109f7565b6109dc565b905082815260208101848484011115610a6657610a65610966565b5b610a71848285610a28565b509392505050565b600082601f830112610a8e57610a8d610961565b5b8135610a9e848260208601610a37565b91505092915050565b600060208284031215610abd57610abc610957565b5b600082013567ffffffffffffffff811115610adb57610ada61095c565b5b610ae784828501610a79565b91505092915050565b600081519050919050565b600082825260208201905092915050565b60005b83811015610b2a578082015181840152602081019050610b0f565b60008484015250505050565b6000610b4182610af0565b610b4b8185610afb565b9350610b5b818560208601610b0c565b610b648161096b565b840191505092915050565b60006020820190508181036000830152610b898184610b36565b905092915050565b60008060408385031215610ba857610ba7610957565b5b600083013567ffffffffffffffff811115610bc657610bc561095c565b5b610bd285828601610a79565b925050602083013567ffffffffffffffff811115610bf357610bf261095c565b5b610bff85828601610a79565b9150509250929050565b600081905092915050565b6000610c1f82610af0565b610c298185610c09565b9350610c39818560208601610b0c565b80840191505092915050565b6000610c518284610c14565b915081905092915050565b7f4e487b7100000000000000000000000000000000000000000000000000000000600052602260045260246000fd5b60006002820490506001821680610ca357607f821691505b602082108103610cb657610cb5610c5c565b5b50919050565b60008190508160005260206000209050919050565b60006020601f8301049050919050565b600082821b905092915050565b600060088302610d1e7fffffffffffffffffffffffffffffffffffffffffffffffffffffffffffffffff82610ce1565b610d288683610ce1565b95508019841693508086168417925050509392505050565b6000819050919050565b6000819050919050565b6000610d6f610d6a610d6584610d40565b610d4a565b610d40565b9050919050565b6000819050919050565b610d8983610d54565b610d9d610d9582610d76565b848454610cee565b825550505050565b600090565b610db2610da5565b610dbd818484610d80565b505050565b5b81811015610de157610dd6600082610daa565b600181019050610dc3565b5050565b601f821115610e2657610df781610cbc565b610e0084610cd1565b81016020851015610e0f578190505b610e23610e1b85610cd1565b830182610dc2565b50505b505050565b600082821c905092915050565b6000610e4960001984600802610e2b565b1980831691505092915050565b6000610e628383610e38565b9150826002028217905092915050565b610e7b82610af0565b67ffffffffffffffff811115610e9457610e9361097c565b5b610e9e8254610c8b565b610ea9828285610de5565b600060209050601f831160018114610edc5760008415610eca578287015190505b610ed48582610e56565b865550610f3c565b601f198416610eea86610cbc565b60005b82811015610f1257848901518255600182019150602085019450602081019050610eed565b86831015610f2f5784890151610f2b601f891682610e38565b8355505b6001600288020188555050505b50505050505056fea2646970667358221220645907567bc1fe811566463f1cf839ef00a48bbb2b49d14ad0fdf8b670ef385864736f6c63430008130033","opcodes":"PUSH1 0x80 PUSH1 0x40 MSTORE CALLVALUE DUP1 ISZERO PUSH2 0x10 JUMPI PUSH1 0x0 DUP1 REVERT JUMPDEST POP PUSH2 0xF7A DUP1 PUSH2 0x20 PUSH1 0x0 CODECOPY PUSH1 0x0 RETURN INVALID PUSH1 0x80 PUSH1 0x40 MSTORE CALLVALUE DUP1 ISZERO PUSH2 0x10 JUMPI PUSH1 0x0 DUP1 REVERT JUMPDEST POP PUSH1 0x4 CALLDATASIZE LT PUSH2 0xEA JUMPI PUSH1 0x0 CALLDATALOAD PUSH1 0xE0 SHR DUP1 PUSH4 0x8E28794B GT PUSH2 0x8C JUMPI DUP1 PUSH4 0xA30F41D4 GT PUSH2 0x66 JUMPI DUP1 PUSH4 0xA30F41D4 EQ PUSH2 0x26B JUMPI DUP1 PUSH4 0xD19D5B83 EQ PUSH2 0x29B JUMPI DUP1 PUSH4 0xD5D38589 EQ PUSH2 0x2CB JUMPI DUP1 PUSH4 0xFFDBC055 EQ PUSH2 0x2E7 JUMPI PUSH2 0xEA JUMP JUMPDEST DUP1 PUSH4 0x8E28794B EQ PUSH2 0x1EF JUMPI DUP1 PUSH4 0x95E587F5 EQ PUSH2 0x21F JUMPI DUP1 PUSH4 0xA1F058C7 EQ PUSH2 0x24F JUMPI PUSH2 0xEA JUMP JUMPDEST DUP1 PUSH4 0x25C723D3 GT PUSH2 0xC8 JUMPI DUP1 PUSH4 0x25C723D3 EQ PUSH2 0x157 JUMPI DUP1 PUSH4 0x3BA1E7FE EQ PUSH2 0x187 JUMPI DUP1 PUSH4 0x4D1FFA9A EQ PUSH2 0x1A3 JUMPI DUP1 PUSH4 0x6DF36BC6 EQ PUSH2 0x1BF JUMPI PUSH2 0xEA JUMP JUMPDEST DUP1 PUSH4 0x3C8FC10 EQ PUSH2 0xEF JUMPI DUP1 PUSH4 0x153474B9 EQ PUSH2 0x11F JUMPI DUP1 PUSH4 0x173E72B7 EQ PUSH2 0x13B JUMPI JUMPDEST PUSH1 0x0 DUP1 REVERT JUMPDEST PUSH2 0x109 PUSH1 0x4 DUP1 CALLDATASIZE SUB DUP2 ADD SWAP1 PUSH2 0x104 SWAP2 SWAP1 PUSH2 0xAA7 JUMP JUMPDEST PUSH2 0x303 JUMP JUMPDEST PUSH1 0x40 MLOAD PUSH2 0x116 SWAP2 SWAP1 PUSH2 0xB6F JUMP JUMPDEST PUSH1 0x40 MLOAD DUP1 SWAP2 SUB SWAP1 RETURN JUMPDEST PUSH2 0x139 PUSH1 0x4 DUP1 CALLDATASIZE SUB DUP2 ADD SWAP1 PUSH2 0x134 SWAP2 SWAP1 PUSH2 0xB91 JUMP JUMPDEST PUSH2 0x3B6 JUMP JUMPDEST STOP JUMPDEST PUSH2 0x155 PUSH1 0x4 DUP1 CALLDATASIZE SUB DUP2 ADD SWAP1 PUSH2 0x150 SWAP2 SWAP1 PUSH2 0xB91 JUMP JUMPDEST PUSH2 0x3E9 JUMP JUMPDEST STOP JUMPDEST PUSH2 0x171 PUSH1 0x4 DUP1 CALLDATASIZE SUB DUP2 ADD SWAP1 PUSH2 0x16C SWAP2 SWAP1 PUSH2 0xAA7 JUMP JUMPDEST PUSH2 0x41C JUMP JUMPDEST PUSH1 0x40 MLOAD PUSH2 0x17E SWAP2 SWAP1 PUSH2 0xB6F JUMP JUMPDEST PUSH1 0x40 MLOAD DUP1 SWAP2 SUB SWAP1 RETURN JUMPDEST PUSH2 0x1A1 PUSH1 0x4 DUP1 CALLDATASIZE SUB DUP2 ADD SWAP1 PUSH2 0x19C SWAP2 SWAP1 PUSH2 0xB91 JUMP JUMPDEST PUSH2 0x4CF JUMP JUMPDEST STOP JUMPDEST PUSH2 0x1BD PUSH1 0x4 DUP1 CALLDATASIZE SUB DUP2 ADD SWAP1 PUSH2 0x1B8 SWAP2 SWAP1 PUSH2 0xB91 JUMP JUMPDEST PUSH2 0x502 JUMP JUMPDEST STOP JUMPDEST PUSH2 0x1D9 PUSH1 0x4 DUP1 CALLDATASIZE SUB DUP2 ADD SWAP1 PUSH2 0x1D4 SWAP2 SWAP1 PUSH2 0xAA7 JUMP JUMPDEST PUSH2 0x535 JUMP JUMPDEST PUSH1 0x40 MLOAD PUSH2 0x1E6 SWAP2 SWAP1 PUSH2 0xB6F JUMP JUMPDEST PUSH1 0x40 MLOAD DUP1 SWAP2 SUB SWAP1 RETURN JUMPDEST PUSH2 0x209 PUSH1 0x4 DUP1 CALLDATASIZE SUB DUP2 ADD SWAP1 PUSH2 0x204 SWAP2 SWAP1 PUSH2 0xAA7 JUMP JUMPDEST PUSH2 0x5E8 JUMP JUMPDEST PUSH1 0x40 MLOAD PUSH2 0x216 SWAP2 SWAP1 PUSH2 0xB6F JUMP JUMPDEST PUSH1 0x40 MLOAD DUP1 SWAP2 SUB SWAP1 RETURN JUMPDEST PUSH2 0x239 PUSH1 0x4 DUP1 CALLDATASIZE SUB DUP2 ADD SWAP1 PUSH2 0x234 SWAP2 SWAP1 PUSH2 0xAA7 JUMP JUMPDEST PUSH2 0x69B JUMP JUMPDEST PUSH1 0x40 MLOAD PUSH2 0x246 SWAP2 SWAP1 PUSH2 0xB6F JUMP JUMPDEST PUSH1 0x40 MLOAD DUP1 SWAP2 SUB SWAP1 RETURN JUMPDEST PUSH2 0x269 PUSH1 0x4 DUP1 CALLDATASIZE SUB DUP2 ADD SWAP1 PUSH2 0x264 SWAP2 SWAP1 PUSH2 0xB91 JUMP JUMPDEST PUSH2 0x74E JUMP JUMPDEST STOP JUMPDEST PUSH2 0x285 PUSH1 0x4 DUP1 CALLDATASIZE SUB DUP2 ADD SWAP1 PUSH2 0x280 SWAP2 SWAP1 PUSH2 0xAA7 JUMP JUMPDEST PUSH2 0x781 JUMP JUMPDEST PUSH1 0x40 MLOAD PUSH2 0x292 SWAP2 SWAP1 PUSH2 0xB6F JUMP JUMPDEST PUSH1 0x40 MLOAD DUP1 SWAP2 SUB SWAP1 RETURN JUMPDEST PUSH2 0x2B5 PUSH1 0x4 DUP1 CALLDATASIZE SUB DUP2 ADD SWAP1 PUSH2 0x2B0 SWAP2 SWAP1 PUSH2 0xAA7 JUMP JUMPDEST PUSH2 0x834 JUMP JUMPDEST PUSH1 0x40 MLOAD PUSH2 0x2C2 SWAP2 SWAP1 PUSH2 0xB6F JUMP JUMPDEST PUSH1 0x40 MLOAD DUP1 SWAP2 SUB SWAP1 RETURN JUMPDEST PUSH2 0x2E5 PUSH1 0x4 DUP1 CALLDATASIZE SUB DUP2 ADD SWAP1 PUSH2 0x2E0 SWAP2 SWAP1 PUSH2 0xB91 JUMP JUMPDEST PUSH2 0x8E7 JUMP JUMPDEST STOP JUMPDEST PUSH2 0x301 PUSH1 0x4 DUP1 CALLDATASIZE SUB DUP2 ADD SWAP1 PUSH2 0x2FC SWAP2 SWAP1 PUSH2 0xB91 JUMP JUMPDEST PUSH2 0x91A JUMP JUMPDEST STOP JUMPDEST PUSH1 0x60 PUSH1 0x0 DUP3 PUSH1 0x40 MLOAD PUSH2 0x315 SWAP2 SWAP1 PUSH2 0xC45 JUMP JUMPDEST SWAP1 DUP2 MSTORE PUSH1 0x20 ADD PUSH1 0x40 MLOAD DUP1 SWAP2 SUB SWAP1 KECCAK256 PUSH1 0x2 ADD DUP1 SLOAD PUSH2 0x331 SWAP1 PUSH2 0xC8B JUMP JUMPDEST DUP1 PUSH1 0x1F ADD PUSH1 0x20 DUP1 SWAP2 DIV MUL PUSH1 0x20 ADD PUSH1 0x40 MLOAD SWAP1 DUP2 ADD PUSH1 0x40 MSTORE DUP1 SWAP3 SWAP2 SWAP1 DUP2 DUP2 MSTORE PUSH1 0x20 ADD DUP3 DUP1 SLOAD PUSH2 0x35D SWAP1 PUSH2 0xC8B JUMP JUMPDEST DUP1 ISZERO PUSH2 0x3AA JUMPI DUP1 PUSH1 0x1F LT PUSH2 0x37F JUMPI PUSH2 0x100 DUP1 DUP4 SLOAD DIV MUL DUP4 MSTORE SWAP2 PUSH1 0x20 ADD SWAP2 PUSH2 0x3AA JUMP JUMPDEST DUP3 ADD SWAP2 SWAP1 PUSH1 0x0 MSTORE PUSH1 0x20 PUSH1 0x0 KECCAK256 SWAP1 JUMPDEST DUP2 SLOAD DUP2 MSTORE SWAP1 PUSH1 0x1 ADD SWAP1 PUSH1 0x20 ADD DUP1 DUP4 GT PUSH2 0x38D JUMPI DUP3 SWAP1 SUB PUSH1 0x1F AND DUP3 ADD SWAP2 JUMPDEST POP POP POP POP POP SWAP1 POP SWAP2 SWAP1 POP JUMP JUMPDEST DUP1 PUSH1 0x0 DUP4 PUSH1 0x40 MLOAD PUSH2 0x3C7 SWAP2 SWAP1 PUSH2 0xC45 JUMP JUMPDEST SWAP1 DUP2 MSTORE PUSH1 0x20 ADD PUSH1 0x40 MLOAD DUP1 SWAP2 SUB SWAP1 KECCAK256 PUSH1 0x5 ADD SWAP1 DUP2 PUSH2 0x3E4 SWAP2 SWAP1 PUSH2 0xE72 JUMP JUMPDEST POP POP POP JUMP JUMPDEST DUP1 PUSH1 0x0 DUP4 PUSH1 0x40 MLOAD PUSH2 0x3FA SWAP2 SWAP1 PUSH2 0xC45 JUMP JUMPDEST SWAP1 DUP2 MSTORE PUSH1 0x20 ADD PUSH1 0x40 MLOAD DUP1 SWAP2 SUB SWAP1 KECCAK256 PUSH1 0x6 ADD SWAP1 DUP2 PUSH2 0x417 SWAP2 SWAP1 PUSH2 0xE72 JUMP JUMPDEST POP POP POP JUMP JUMPDEST PUSH1 0x60 PUSH1 0x0 DUP3 PUSH1 0x40 MLOAD PUSH2 0x42E SWAP2 SWAP1 PUSH2 0xC45 JUMP JUMPDEST SWAP1 DUP2 MSTORE PUSH1 0x20 ADD PUSH1 0x40 MLOAD DUP1 SWAP2 SUB SWAP1 KECCAK256 PUSH1 0x3 ADD DUP1 SLOAD PUSH2 0x44A SWAP1 PUSH2 0xC8B JUMP JUMPDEST DUP1 PUSH1 0x1F ADD PUSH1 0x20 DUP1 SWAP2 DIV MUL PUSH1 0x20 ADD PUSH1 0x40 MLOAD SWAP1 DUP2 ADD PUSH1 0x40 MSTORE DUP1 SWAP3 SWAP2 SWAP1 DUP2 DUP2 MSTORE PUSH1 0x20 ADD DUP3 DUP1 SLOAD PUSH2 0x476 SWAP1 PUSH2 0xC8B JUMP JUMPDEST DUP1 ISZERO PUSH2 0x4C3 JUMPI DUP1 PUSH1 0x1F LT PUSH2 0x498 JUMPI PUSH2 0x100 DUP1 DUP4 SLOAD DIV MUL DUP4 MSTORE SWAP2 PUSH1 0x20 ADD SWAP2 PUSH2 0x4C3 JUMP JUMPDEST DUP3 ADD SWAP2 SWAP1 PUSH1 0x0 MSTORE PUSH1 0x20 PUSH1 0x0 KECCAK256 SWAP1 JUMPDEST DUP2 SLOAD DUP2 MSTORE SWAP1 PUSH1 0x1 ADD SWAP1 PUSH1 0x20 ADD DUP1 DUP4 GT PUSH2 0x4A6 JUMPI DUP3 SWAP1 SUB PUSH1 0x1F AND DUP3 ADD SWAP2 JUMPDEST POP POP POP POP POP SWAP1 POP SWAP2 SWAP1 POP JUMP JUMPDEST DUP1 PUSH1 0x0 DUP4 PUSH1 0x40 MLOAD PUSH2 0x4E0 SWAP2 SWAP1 PUSH2 0xC45 JUMP JUMPDEST SWAP1 DUP2 MSTORE PUSH1 0x20 ADD PUSH1 0x40 MLOAD DUP1 SWAP2 SUB SWAP1 KECCAK256 PUSH1 0x3 ADD SWAP1 DUP2 PUSH2 0x4FD SWAP2 SWAP1 PUSH2 0xE72 JUMP JUMPDEST POP POP POP JUMP JUMPDEST DUP1 PUSH1 0x0 DUP4 PUSH1 0x40 MLOAD PUSH2 0x513 SWAP2 SWAP1 PUSH2 0xC45 JUMP JUMPDEST SWAP1 DUP2 MSTORE PUSH1 0x20 ADD PUSH1 0x40 MLOAD DUP1 SWAP2 SUB SWAP1 KECCAK256 PUSH1 0x2 ADD SWAP1 DUP2 PUSH2 0x530 SWAP2 SWAP1 PUSH2 0xE72 JUMP JUMPDEST POP POP POP JUMP JUMPDEST PUSH1 0x60 PUSH1 0x0 DUP3 PUSH1 0x40 MLOAD PUSH2 0x547 SWAP2 SWAP1 PUSH2 0xC45 JUMP JUMPDEST SWAP1 DUP2 MSTORE PUSH1 0x20 ADD PUSH1 0x40 MLOAD DUP1 SWAP2 SUB SWAP1 KECCAK256 PUSH1 0x5 ADD DUP1 SLOAD PUSH2 0x563 SWAP1 PUSH2 0xC8B JUMP JUMPDEST DUP1 PUSH1 0x1F ADD PUSH1 0x20 DUP1 SWAP2 DIV MUL PUSH1 0x20 ADD PUSH1 0x40 MLOAD SWAP1 DUP2 ADD PUSH1 0x40 MSTORE DUP1 SWAP3 SWAP2 SWAP1 DUP2 DUP2 MSTORE PUSH1 0x20 ADD DUP3 DUP1 SLOAD PUSH2 0x58F SWAP1 PUSH2 0xC8B JUMP JUMPDEST DUP1 ISZERO PUSH2 0x5DC JUMPI DUP1 PUSH1 0x1F LT PUSH2 0x5B1 JUMPI PUSH2 0x100 DUP1 DUP4 SLOAD DIV MUL DUP4 MSTORE SWAP2 PUSH1 0x20 ADD SWAP2 PUSH2 0x5DC JUMP JUMPDEST DUP3 ADD SWAP2 SWAP1 PUSH1 0x0 MSTORE PUSH1 0x20 PUSH1 0x0 KECCAK256 SWAP1 JUMPDEST DUP2 SLOAD DUP2 MSTORE SWAP1 PUSH1 0x1 ADD SWAP1 PUSH1 0x20 ADD DUP1 DUP4 GT PUSH2 0x5BF JUMPI DUP3 SWAP1 SUB PUSH1 0x1F AND DUP3 ADD SWAP2 JUMPDEST POP POP POP POP POP SWAP1 POP SWAP2 SWAP1 POP JUMP JUMPDEST PUSH1 0x60 PUSH1 0x0 DUP3 PUSH1 0x40 MLOAD PUSH2 0x5FA SWAP2 SWAP1 PUSH2 0xC45 JUMP JUMPDEST SWAP1 DUP2 MSTORE PUSH1 0x20 ADD PUSH1 0x40 MLOAD DUP1 SWAP2 SUB SWAP1 KECCAK256 PUSH1 0x1 ADD DUP1 SLOAD PUSH2 0x616 SWAP1 PUSH2 0xC8B JUMP JUMPDEST DUP1 PUSH1 0x1F ADD PUSH1 0x20 DUP1 SWAP2 DIV MUL PUSH1 0x20 ADD PUSH1 0x40 MLOAD SWAP1 DUP2 ADD PUSH1 0x40 MSTORE DUP1 SWAP3 SWAP2 SWAP1 DUP2 DUP2 MSTORE PUSH1 0x20 ADD DUP3 DUP1 SLOAD PUSH2 0x642 SWAP1 PUSH2 0xC8B JUMP JUMPDEST DUP1 ISZERO PUSH2 0x68F JUMPI DUP1 PUSH1 0x1F LT PUSH2 0x664 JUMPI PUSH2 0x100 DUP1 DUP4 SLOAD DIV MUL DUP4 MSTORE SWAP2 PUSH1 0x20 ADD SWAP2 PUSH2 0x68F JUMP JUMPDEST DUP3 ADD SWAP2 SWAP1 PUSH1 0x0 MSTORE PUSH1 0x20 PUSH1 0x0 KECCAK256 SWAP1 JUMPDEST DUP2 SLOAD DUP2 MSTORE SWAP1 PUSH1 0x1 ADD SWAP1 PUSH1 0x20 ADD DUP1 DUP4 GT PUSH2 0x672 JUMPI DUP3 SWAP1 SUB PUSH1 0x1F AND DUP3 ADD SWAP2 JUMPDEST POP POP POP POP POP SWAP1 POP SWAP2 SWAP1 POP JUMP JUMPDEST PUSH1 0x60 PUSH1 0x0 DUP3 PUSH1 0x40 MLOAD PUSH2 0x6AD SWAP2 SWAP1 PUSH2 0xC45 JUMP JUMPDEST SWAP1 DUP2 MSTORE PUSH1 0x20 ADD PUSH1 0x40 MLOAD DUP1 SWAP2 SUB SWAP1 KECCAK256 PUSH1 0x0 ADD DUP1 SLOAD PUSH2 0x6C9 SWAP1 PUSH2 0xC8B JUMP JUMPDEST DUP1 PUSH1 0x1F ADD PUSH1 0x20 DUP1 SWAP2 DIV MUL PUSH1 0x20 ADD PUSH1 0x40 MLOAD SWAP1 DUP2 ADD PUSH1 0x40 MSTORE DUP1 SWAP3 SWAP2 SWAP1 DUP2 DUP2 MSTORE PUSH1 0x20 ADD DUP3 DUP1 SLOAD PUSH2 0x6F5 SWAP1 PUSH2 0xC8B JUMP JUMPDEST DUP1 ISZERO PUSH2 0x742 JUMPI DUP1 PUSH1 0x1F LT PUSH2 0x717 JUMPI PUSH2 0x100 DUP1 DUP4 SLOAD DIV MUL DUP4 MSTORE SWAP2 PUSH1 0x20 ADD SWAP2 PUSH2 0x742 JUMP JUMPDEST DUP3 ADD SWAP2 SWAP1 PUSH1 0x0 MSTORE PUSH1 0x20 PUSH1 0x0 KECCAK256 SWAP1 JUMPDEST DUP2 SLOAD DUP2 MSTORE SWAP1 PUSH1 0x1 ADD SWAP1 PUSH1 0x20 ADD DUP1 DUP4 GT PUSH2 0x725 JUMPI DUP3 SWAP1 SUB PUSH1 0x1F AND DUP3 ADD SWAP2 JUMPDEST POP POP POP POP POP SWAP1 POP SWAP2 SWAP1 POP JUMP JUMPDEST DUP1 PUSH1 0x0 DUP4 PUSH1 0x40 MLOAD PUSH2 0x75F SWAP2 SWAP1 PUSH2 0xC45 JUMP JUMPDEST SWAP1 DUP2 MSTORE PUSH1 0x20 ADD PUSH1 0x40 MLOAD DUP1 SWAP2 SUB SWAP1 KECCAK256 PUSH1 0x4 ADD SWAP1 DUP2 PUSH2 0x77C SWAP2 SWAP1 PUSH2 0xE72 JUMP JUMPDEST POP POP POP JUMP JUMPDEST PUSH1 0x60 PUSH1 0x0 DUP3 PUSH1 0x40 MLOAD PUSH2 0x793 SWAP2 SWAP1 PUSH2 0xC45 JUMP JUMPDEST SWAP1 DUP2 MSTORE PUSH1 0x20 ADD PUSH1 0x40 MLOAD DUP1 SWAP2 SUB SWAP1 KECCAK256 PUSH1 0x6 ADD DUP1 SLOAD PUSH2 0x7AF SWAP1 PUSH2 0xC8B JUMP JUMPDEST DUP1 PUSH1 0x1F ADD PUSH1 0x20 DUP1 SWAP2 DIV MUL PUSH1 0x20 ADD PUSH1 0x40 MLOAD SWAP1 DUP2 ADD PUSH1 0x40 MSTORE DUP1 SWAP3 SWAP2 SWAP1 DUP2 DUP2 MSTORE PUSH1 0x20 ADD DUP3 DUP1 SLOAD PUSH2 0x7DB SWAP1 PUSH2 0xC8B JUMP JUMPDEST DUP1 ISZERO PUSH2 0x828 JUMPI DUP1 PUSH1 0x1F LT PUSH2 0x7FD JUMPI PUSH2 0x100 DUP1 DUP4 SLOAD DIV MUL DUP4 MSTORE SWAP2 PUSH1 0x20 ADD SWAP2 PUSH2 0x828 JUMP JUMPDEST DUP3 ADD SWAP2 SWAP1 PUSH1 0x0 MSTORE PUSH1 0x20 PUSH1 0x0 KECCAK256 SWAP1 JUMPDEST DUP2 SLOAD DUP2 MSTORE SWAP1 PUSH1 0x1 ADD SWAP1 PUSH1 0x20 ADD DUP1 DUP4 GT PUSH2 0x80B JUMPI DUP3 SWAP1 SUB PUSH1 0x1F AND DUP3 ADD SWAP2 JUMPDEST POP POP POP POP POP SWAP1 POP SWAP2 SWAP1 POP JUMP JUMPDEST PUSH1 0x60 PUSH1 0x0 DUP3 PUSH1 0x40 MLOAD PUSH2 0x846 SWAP2 SWAP1 PUSH2 0xC45 JUMP JUMPDEST SWAP1 DUP2 MSTORE PUSH1 0x20 ADD PUSH1 0x40 MLOAD DUP1 SWAP2 SUB SWAP1 KECCAK256 PUSH1 0x4 ADD DUP1 SLOAD PUSH2 0x862 SWAP1 PUSH2 0xC8B JUMP JUMPDEST DUP1 PUSH1 0x1F ADD PUSH1 0x20 DUP1 SWAP2 DIV MUL PUSH1 0x20 ADD PUSH1 0x40 MLOAD SWAP1 DUP2 ADD PUSH1 0x40 MSTORE DUP1 SWAP3 SWAP2 SWAP1 DUP2 DUP2 MSTORE PUSH1 0x20 ADD DUP3 DUP1 SLOAD PUSH2 0x88E SWAP1 PUSH2 0xC8B JUMP JUMPDEST DUP1 ISZERO PUSH2 0x8DB JUMPI DUP1 PUSH1 0x1F LT PUSH2 0x8B0 JUMPI PUSH2 0x100 DUP1 DUP4 SLOAD DIV MUL DUP4 MSTORE SWAP2 PUSH1 0x20 ADD SWAP2 PUSH2 0x8DB JUMP JUMPDEST DUP3 ADD SWAP2 SWAP1 PUSH1 0x0 MSTORE PUSH1 0x20 PUSH1 0x0 KECCAK256 SWAP1 JUMPDEST DUP2 SLOAD DUP2 MSTORE SWAP1 PUSH1 0x1 ADD SWAP1 PUSH1 0x20 ADD DUP1 DUP4 GT PUSH2 0x8BE JUMPI DUP3 SWAP1 SUB PUSH1 0x1F AND DUP3 ADD SWAP2 JUMPDEST POP POP POP POP POP SWAP1 POP SWAP2 SWAP1 POP JUMP JUMPDEST DUP1 PUSH1 0x0 DUP4 PUSH1 0x40 MLOAD PUSH2 0x8F8 SWAP2 SWAP1 PUSH2 0xC45 JUMP JUMPDEST SWAP1 DUP2 MSTORE PUSH1 0x20 ADD PUSH1 0x40 MLOAD DUP1 SWAP2 SUB SWAP1 KECCAK256 PUSH1 0x1 ADD SWAP1 DUP2 PUSH2 0x915 SWAP2 SWAP1 PUSH2 0xE72 JUMP JUMPDEST POP POP POP JUMP JUMPDEST DUP1 PUSH1 0x0 DUP4 PUSH1 0x40 MLOAD PUSH2 0x92B SWAP2 SWAP1 PUSH2 0xC45 JUMP JUMPDEST SWAP1 DUP2 MSTORE PUSH1 0x20 ADD PUSH1 0x40 MLOAD DUP1 SWAP2 SUB SWAP1 KECCAK256 PUSH1 0x0 ADD SWAP1 DUP2 PUSH2 0x948 SWAP2 SWAP1 PUSH2 0xE72 JUMP JUMPDEST POP POP POP JUMP JUMPDEST PUSH1 0x0 PUSH1 0x40 MLOAD SWAP1 POP SWAP1 JUMP JUMPDEST PUSH1 0x0 DUP1 REVERT JUMPDEST PUSH1 0x0 DUP1 REVERT JUMPDEST PUSH1 0x0 DUP1 REVERT JUMPDEST PUSH1 0x0 DUP1 REVERT JUMPDEST PUSH1 0x0 PUSH1 0x1F NOT PUSH1 0x1F DUP4 ADD AND SWAP1 POP SWAP2 SWAP1 POP JUMP JUMPDEST PUSH32 0x4E487B7100000000000000000000000000000000000000000000000000000000 PUSH1 0x0 MSTORE PUSH1 0x41 PUSH1 0x4 MSTORE PUSH1 0x24 PUSH1 0x0 REVERT JUMPDEST PUSH2 0x9B4 DUP3 PUSH2 0x96B JUMP JUMPDEST DUP2 ADD DUP2 DUP2 LT PUSH8 0xFFFFFFFFFFFFFFFF DUP3 GT OR ISZERO PUSH2 0x9D3 JUMPI PUSH2 0x9D2 PUSH2 0x97C JUMP JUMPDEST JUMPDEST DUP1 PUSH1 0x40 MSTORE POP POP POP JUMP JUMPDEST PUSH1 0x0 PUSH2 0x9E6 PUSH2 0x94D JUMP JUMPDEST SWAP1 POP PUSH2 0x9F2 DUP3 DUP3 PUSH2 0x9AB JUMP JUMPDEST SWAP2 SWAP1 POP JUMP JUMPDEST PUSH1 0x0 PUSH8 0xFFFFFFFFFFFFFFFF DUP3 GT ISZERO PUSH2 0xA12 JUMPI PUSH2 0xA11 PUSH2 0x97C JUMP JUMPDEST JUMPDEST PUSH2 0xA1B DUP3 PUSH2 0x96B JUMP JUMPDEST SWAP1 POP PUSH1 0x20 DUP2 ADD SWAP1 POP SWAP2 SWAP1 POP JUMP JUMPDEST DUP3 DUP2 DUP4 CALLDATACOPY PUSH1 0x0 DUP4 DUP4 ADD MSTORE POP POP POP JUMP JUMPDEST PUSH1 0x0 PUSH2 0xA4A PUSH2 0xA45 DUP5 PUSH2 0x9F7 JUMP JUMPDEST PUSH2 0x9DC JUMP JUMPDEST SWAP1 POP DUP3 DUP2 MSTORE PUSH1 0x20 DUP2 ADD DUP5 DUP5 DUP5 ADD GT ISZERO PUSH2 0xA66 JUMPI PUSH2 0xA65 PUSH2 0x966 JUMP JUMPDEST JUMPDEST PUSH2 0xA71 DUP5 DUP3 DUP6 PUSH2 0xA28 JUMP JUMPDEST POP SWAP4 SWAP3 POP POP POP JUMP JUMPDEST PUSH1 0x0 DUP3 PUSH1 0x1F DUP4 ADD SLT PUSH2 0xA8E JUMPI PUSH2 0xA8D PUSH2 0x961 JUMP JUMPDEST JUMPDEST DUP2 CALLDATALOAD PUSH2 0xA9E DUP5 DUP3 PUSH1 0x20 DUP7 ADD PUSH2 0xA37 JUMP JUMPDEST SWAP2 POP POP SWAP3 SWAP2 POP POP JUMP JUMPDEST PUSH1 0x0 PUSH1 0x20 DUP3 DUP5 SUB SLT ISZERO PUSH2 0xABD JUMPI PUSH2 0xABC PUSH2 0x957 JUMP JUMPDEST JUMPDEST PUSH1 0x0 DUP3 ADD CALLDATALOAD PUSH8 0xFFFFFFFFFFFFFFFF DUP2 GT ISZERO PUSH2 0xADB JUMPI PUSH2 0xADA PUSH2 0x95C JUMP JUMPDEST JUMPDEST PUSH2 0xAE7 DUP5 DUP3 DUP6 ADD PUSH2 0xA79 JUMP JUMPDEST SWAP2 POP POP SWAP3 SWAP2 POP POP JUMP JUMPDEST PUSH1 0x0 DUP2 MLOAD SWAP1 POP SWAP2 SWAP1 POP JUMP JUMPDEST PUSH1 0x0 DUP3 DUP3 MSTORE PUSH1 0x20 DUP3 ADD SWAP1 POP SWAP3 SWAP2 POP POP JUMP JUMPDEST PUSH1 0x0 JUMPDEST DUP4 DUP2 LT ISZERO PUSH2 0xB2A JUMPI DUP1 DUP3 ADD MLOAD DUP2 DUP5 ADD MSTORE PUSH1 0x20 DUP2 ADD SWAP1 POP PUSH2 0xB0F JUMP JUMPDEST PUSH1 0x0 DUP5 DUP5 ADD MSTORE POP POP POP POP JUMP JUMPDEST PUSH1 0x0 PUSH2 0xB41 DUP3 PUSH2 0xAF0 JUMP JUMPDEST PUSH2 0xB4B DUP2 DUP6 PUSH2 0xAFB JUMP JUMPDEST SWAP4 POP PUSH2 0xB5B DUP2 DUP6 PUSH1 0x20 DUP7 ADD PUSH2 0xB0C JUMP JUMPDEST PUSH2 0xB64 DUP2 PUSH2 0x96B JUMP JUMPDEST DUP5 ADD SWAP2 POP POP SWAP3 SWAP2 POP POP JUMP JUMPDEST PUSH1 0x0 PUSH1 0x20 DUP3 ADD SWAP1 POP DUP2 DUP2 SUB PUSH1 0x0 DUP4 ADD MSTORE PUSH2 0xB89 DUP2 DUP5 PUSH2 0xB36 JUMP JUMPDEST SWAP1 POP SWAP3 SWAP2 POP POP JUMP JUMPDEST PUSH1 0x0 DUP1 PUSH1 0x40 DUP4 DUP6 SUB SLT ISZERO PUSH2 0xBA8 JUMPI PUSH2 0xBA7 PUSH2 0x957 JUMP JUMPDEST JUMPDEST PUSH1 0x0 DUP4 ADD CALLDATALOAD PUSH8 0xFFFFFFFFFFFFFFFF DUP2 GT ISZERO PUSH2 0xBC6 JUMPI PUSH2 0xBC5 PUSH2 0x95C JUMP JUMPDEST JUMPDEST PUSH2 0xBD2 DUP6 DUP3 DUP7 ADD PUSH2 0xA79 JUMP JUMPDEST SWAP3 POP POP PUSH1 0x20 DUP4 ADD CALLDATALOAD PUSH8 0xFFFFFFFFFFFFFFFF DUP2 GT ISZERO PUSH2 0xBF3 JUMPI PUSH2 0xBF2 PUSH2 0x95C JUMP JUMPDEST JUMPDEST PUSH2 0xBFF DUP6 DUP3 DUP7 ADD PUSH2 0xA79 JUMP JUMPDEST SWAP2 POP POP SWAP3 POP SWAP3 SWAP1 POP JUMP JUMPDEST PUSH1 0x0 DUP2 SWAP1 POP SWAP3 SWAP2 POP POP JUMP JUMPDEST PUSH1 0x0 PUSH2 0xC1F DUP3 PUSH2 0xAF0 JUMP JUMPDEST PUSH2 0xC29 DUP2 DUP6 PUSH2 0xC09 JUMP JUMPDEST SWAP4 POP PUSH2 0xC39 DUP2 DUP6 PUSH1 0x20 DUP7 ADD PUSH2 0xB0C JUMP JUMPDEST DUP1 DUP5 ADD SWAP2 POP POP SWAP3 SWAP2 POP POP JUMP JUMPDEST PUSH1 0x0 PUSH2 0xC51 DUP3 DUP5 PUSH2 0xC14 JUMP JUMPDEST SWAP2 POP DUP2 SWAP1 POP SWAP3 SWAP2 POP POP JUMP JUMPDEST PUSH32 0x4E487B7100000000000000000000000000000000000000000000000000000000 PUSH1 0x0 MSTORE PUSH1 0x22 PUSH1 0x4 MSTORE PUSH1 0x24 PUSH1 0x0 REVERT JUMPDEST PUSH1 0x0 PUSH1 0x2 DUP3 DIV SWAP1 POP PUSH1 0x1 DUP3 AND DUP1 PUSH2 0xCA3 JUMPI PUSH1 0x7F DUP3 AND SWAP2 POP JUMPDEST PUSH1 0x20 DUP3 LT DUP2 SUB PUSH2 0xCB6 JUMPI PUSH2 0xCB5 PUSH2 0xC5C JUMP JUMPDEST JUMPDEST POP SWAP2 SWAP1 POP JUMP JUMPDEST PUSH1 0x0 DUP2 SWAP1 POP DUP2 PUSH1 0x0 MSTORE PUSH1 0x20 PUSH1 0x0 KECCAK256 SWAP1 POP SWAP2 SWAP1 POP JUMP JUMPDEST PUSH1 0x0 PUSH1 0x20 PUSH1 0x1F DUP4 ADD DIV SWAP1 POP SWAP2 SWAP1 POP JUMP JUMPDEST PUSH1 0x0 DUP3 DUP3 SHL SWAP1 POP SWAP3 SWAP2 POP POP JUMP JUMPDEST PUSH1 0x0 PUSH1 0x8 DUP4 MUL PUSH2 0xD1E PUSH32 0xFFFFFFFFFFFFFFFFFFFFFFFFFFFFFFFFFFFFFFFFFFFFFFFFFFFFFFFFFFFFFFFF DUP3 PUSH2 0xCE1 JUMP JUMPDEST PUSH2 0xD28 DUP7 DUP4 PUSH2 0xCE1 JUMP JUMPDEST SWAP6 POP DUP1 NOT DUP5 AND SWAP4 POP DUP1 DUP7 AND DUP5 OR SWAP3 POP POP POP SWAP4 SWAP3 POP POP POP JUMP JUMPDEST PUSH1 0x0 DUP2 SWAP1 POP SWAP2 SWAP1 POP JUMP JUMPDEST PUSH1 0x0 DUP2 SWAP1 POP SWAP2 SWAP1 POP JUMP JUMPDEST PUSH1 0x0 PUSH2 0xD6F PUSH2 0xD6A PUSH2 0xD65 DUP5 PUSH2 0xD40 JUMP JUMPDEST PUSH2 0xD4A JUMP JUMPDEST PUSH2 0xD40 JUMP JUMPDEST SWAP1 POP SWAP2 SWAP1 POP JUMP JUMPDEST PUSH1 0x0 DUP2 SWAP1 POP SWAP2 SWAP1 POP JUMP JUMPDEST PUSH2 0xD89 DUP4 PUSH2 0xD54 JUMP JUMPDEST PUSH2 0xD9D PUSH2 0xD95 DUP3 PUSH2 0xD76 JUMP JUMPDEST DUP5 DUP5 SLOAD PUSH2 0xCEE JUMP JUMPDEST DUP3 SSTORE POP POP POP POP JUMP JUMPDEST PUSH1 0x0 SWAP1 JUMP JUMPDEST PUSH2 0xDB2 PUSH2 0xDA5 JUMP JUMPDEST PUSH2 0xDBD DUP2 DUP5 DUP5 PUSH2 0xD80 JUMP JUMPDEST POP POP POP JUMP JUMPDEST JUMPDEST DUP2 DUP2 LT ISZERO PUSH2 0xDE1 JUMPI PUSH2 0xDD6 PUSH1 0x0 DUP3 PUSH2 0xDAA JUMP JUMPDEST PUSH1 0x1 DUP2 ADD SWAP1 POP PUSH2 0xDC3 JUMP JUMPDEST POP POP JUMP JUMPDEST PUSH1 0x1F DUP3 GT ISZERO PUSH2 0xE26 JUMPI PUSH2 0xDF7 DUP2 PUSH2 0xCBC JUMP JUMPDEST PUSH2 0xE00 DUP5 PUSH2 0xCD1 JUMP JUMPDEST DUP2 ADD PUSH1 0x20 DUP6 LT ISZERO PUSH2 0xE0F JUMPI DUP2 SWAP1 POP JUMPDEST PUSH2 0xE23 PUSH2 0xE1B DUP6 PUSH2 0xCD1 JUMP JUMPDEST DUP4 ADD DUP3 PUSH2 0xDC2 JUMP JUMPDEST POP POP JUMPDEST POP POP POP JUMP JUMPDEST PUSH1 0x0 DUP3 DUP3 SHR SWAP1 POP SWAP3 SWAP2 POP POP JUMP JUMPDEST PUSH1 0x0 PUSH2 0xE49 PUSH1 0x0 NOT DUP5 PUSH1 0x8 MUL PUSH2 0xE2B JUMP JUMPDEST NOT DUP1 DUP4 AND SWAP2 POP POP SWAP3 SWAP2 POP POP JUMP JUMPDEST PUSH1 0x0 PUSH2 0xE62 DUP4 DUP4 PUSH2 0xE38 JUMP JUMPDEST SWAP2 POP DUP3 PUSH1 0x2 MUL DUP3 OR SWAP1 POP SWAP3 SWAP2 POP POP JUMP JUMPDEST PUSH2 0xE7B DUP3 PUSH2 0xAF0 JUMP JUMPDEST PUSH8 0xFFFFFFFFFFFFFFFF DUP2 GT ISZERO PUSH2 0xE94 JUMPI PUSH2 0xE93 PUSH2 0x97C JUMP JUMPDEST JUMPDEST PUSH2 0xE9E DUP3 SLOAD PUSH2 0xC8B JUMP JUMPDEST PUSH2 0xEA9 DUP3 DUP3 DUP6 PUSH2 0xDE5 JUMP JUMPDEST PUSH1 0x0 PUSH1 0x20 SWAP1 POP PUSH1 0x1F DUP4 GT PUSH1 0x1 DUP2 EQ PUSH2 0xEDC JUMPI PUSH1 0x0 DUP5 ISZERO PUSH2 0xECA JUMPI DUP3 DUP8 ADD MLOAD SWAP1 POP JUMPDEST PUSH2 0xED4 DUP6 DUP3 PUSH2 0xE56 JUMP JUMPDEST DUP7 SSTORE POP PUSH2 0xF3C JUMP JUMPDEST PUSH1 0x1F NOT DUP5 AND PUSH2 0xEEA DUP7 PUSH2 0xCBC JUMP JUMPDEST PUSH1 0x0 JUMPDEST DUP3 DUP2 LT ISZERO PUSH2 0xF12 JUMPI DUP5 DUP10 ADD MLOAD DUP3 SSTORE PUSH1 0x1 DUP3 ADD SWAP2 POP PUSH1 0x20 DUP6 ADD SWAP5 POP PUSH1 0x20 DUP2 ADD SWAP1 POP PUSH2 0xEED JUMP JUMPDEST DUP7 DUP4 LT ISZERO PUSH2 0xF2F JUMPI DUP5 DUP10 ADD MLOAD PUSH2 0xF2B PUSH1 0x1F DUP10 AND DUP3 PUSH2 0xE38 JUMP JUMPDEST DUP4 SSTORE POP JUMPDEST PUSH1 0x1 PUSH1 0x2 DUP9 MUL ADD DUP9 SSTORE POP POP POP JUMPDEST POP POP POP POP POP POP JUMP INVALID LOG2 PUSH5 0x6970667358 0x22 SLT KECCAK256 PUSH5 0x5907567BC1 INVALID DUP2 ISZERO PUSH7 0x463F1CF839EF00 LOG4 DUP12 0xBB 0x2B 0x49 0xD1 0x4A 0xD0 REVERT 0xF8 0xB6 PUSH17 0xEF385864736F6C63430008130033000000 "},"methodIdentifiers":{"addPatientAllergies(string,string)":"153474b9","addPatientBloodGroup(string,string)":"d5d38589","addPatientDateOfBirth(string,string)":"a1f058c7","addPatientEmail(string,string)":"173e72b7","addPatientGender(string,string)":"3ba1e7fe","addPatientName(string,string)":"ffdbc055","addPatientRollNumber(string,string)":"4d1ffa9a","getPatientAllergies(string)":"6df36bc6","getPatientBloodGroup(string)":"8e28794b","getPatientDateOfBirth(string)":"d19d5b83","getPatientEmail(string)":"a30f41d4","getPatientGender(string)":"25c723d3","getPatientName(string)":"95e587f5","getPatientRollNumber(string)":"03c8fc10"}}}}}