{"contracts/Doctors.sol":{"Doctors":{"abi":[{"inputs":[{"internalType":"string","name":"_docId","type":"string"},{"internalType":"string","name":"_hospital","type":"string"}],"name":"addDocHospital","outputs":[],"stateMutability":"nonpayable","type":"function"},{"inputs":[{"internalType":"string","name":"_docId","type":"string"},{"internalType":"string","name":"_name","type":"string"}],"name":"addDocName","outputs":[],"stateMutability":"nonpayable","type":"function"},{"inputs":[{"internalType":"string","name":"_docId","type":"string"},{"internalType":"string","name":"_speciality","type":"string"}],"name":"addDocSpeciality","outputs":[],"stateMutability":"nonpayable","type":"function"},{"inputs":[{"internalType":"string","name":"_docId","type":"string"}],"name":"getDocHospital","outputs":[{"internalType":"string","name":"","type":"string"}],"stateMutability":"view","type":"function"},{"inputs":[{"internalType":"string","name":"_docId","type":"string"}],"name":"getDocName","outputs":[{"internalType":"string","name":"","type":"string"}],"stateMutability":"view","type":"function"},{"inputs":[{"internalType":"string","name":"_docId","type":"string"}],"name":"getDocSpeciality","outputs":[{"internalType":"string","name":"","type":"string"}],"stateMutability":"view","type":"function"}],"evm":{"bytecode":{"linkReferences":{},"object":"608060405234801561001057600080fd5b50610a2a806100206000396000f3fe608060405234801561001057600080fd5b50600436106100625760003560e01c806307149384146100675780631de11e58146100835780632d8318ec146100b35780637d2a521a146100e3578063aa552991146100ff578063f798d4021461012f575b600080fd5b610081600480360381019061007c9190610557565b61014b565b005b61009d600480360381019061009891906105cf565b61017e565b6040516100aa9190610697565b60405180910390f35b6100cd60048036038101906100c891906105cf565b610231565b6040516100da9190610697565b60405180910390f35b6100fd60048036038101906100f89190610557565b6102e4565b005b610119600480360381019061011491906105cf565b610317565b6040516101269190610697565b60405180910390f35b61014960048036038101906101449190610557565b6103ca565b005b8060008360405161015c91906106f5565b908152602001604051809103902060010190816101799190610922565b505050565b606060008260405161019091906106f5565b908152602001604051809103902060020180546101ac9061073b565b80601f01602080910402602001604051908101604052809291908181526020018280546101d89061073b565b80156102255780601f106101fa57610100808354040283529160200191610225565b820191906000526020600020905b81548152906001019060200180831161020857829003601f168201915b50505050509050919050565b606060008260405161024391906106f5565b9081526020016040518091039020600001805461025f9061073b565b80601f016020809104026020016040519081016040528092919081815260200182805461028b9061073b565b80156102d85780601f106102ad576101008083540402835291602001916102d8565b820191906000526020600020905b8154815290600101906020018083116102bb57829003601f168201915b50505050509050919050565b806000836040516102f591906106f5565b908152602001604051809103902060000190816103129190610922565b505050565b606060008260405161032991906106f5565b908152602001604051809103902060010180546103459061073b565b80601f01602080910402602001604051908101604052809291908181526020018280546103719061073b565b80156103be5780601f10610393576101008083540402835291602001916103be565b820191906000526020600020905b8154815290600101906020018083116103a157829003601f168201915b50505050509050919050565b806000836040516103db91906106f5565b908152602001604051809103902060020190816103f89190610922565b505050565b6000604051905090565b600080fd5b600080fd5b600080fd5b600080fd5b6000601f19601f8301169050919050565b7f4e487b7100000000000000000000000000000000000000000000000000000000600052604160045260246000fd5b6104648261041b565b810181811067ffffffffffffffff821117156104835761048261042c565b5b80604052505050565b60006104966103fd565b90506104a2828261045b565b919050565b600067ffffffffffffffff8211156104c2576104c161042c565b5b6104cb8261041b565b9050602081019050919050565b82818337600083830152505050565b60006104fa6104f5846104a7565b61048c565b90508281526020810184848401111561051657610515610416565b5b6105218482856104d8565b509392505050565b600082601f83011261053e5761053d610411565b5b813561054e8482602086016104e7565b91505092915050565b6000806040838503121561056e5761056d610407565b5b600083013567ffffffffffffffff81111561058c5761058b61040c565b5b61059885828601610529565b925050602083013567ffffffffffffffff8111156105b9576105b861040c565b5b6105c585828601610529565b9150509250929050565b6000602082840312156105e5576105e4610407565b5b600082013567ffffffffffffffff8111156106035761060261040c565b5b61060f84828501610529565b91505092915050565b600081519050919050565b600082825260208201905092915050565b60005b83811015610652578082015181840152602081019050610637565b60008484015250505050565b600061066982610618565b6106738185610623565b9350610683818560208601610634565b61068c8161041b565b840191505092915050565b600060208201905081810360008301526106b1818461065e565b905092915050565b600081905092915050565b60006106cf82610618565b6106d981856106b9565b93506106e9818560208601610634565b80840191505092915050565b600061070182846106c4565b915081905092915050565b7f4e487b7100000000000000000000000000000000000000000000000000000000600052602260045260246000fd5b6000600282049050600182168061075357607f821691505b6020821081036107665761076561070c565b5b50919050565b60008190508160005260206000209050919050565b60006020601f8301049050919050565b600082821b905092915050565b6000600883026107ce7fffffffffffffffffffffffffffffffffffffffffffffffffffffffffffffffff82610791565b6107d88683610791565b95508019841693508086168417925050509392505050565b6000819050919050565b6000819050919050565b600061081f61081a610815846107f0565b6107fa565b6107f0565b9050919050565b6000819050919050565b61083983610804565b61084d61084582610826565b84845461079e565b825550505050565b600090565b610862610855565b61086d818484610830565b505050565b5b818110156108915761088660008261085a565b600181019050610873565b5050565b601f8211156108d6576108a78161076c565b6108b084610781565b810160208510156108bf578190505b6108d36108cb85610781565b830182610872565b50505b505050565b600082821c905092915050565b60006108f9600019846008026108db565b1980831691505092915050565b600061091283836108e8565b9150826002028217905092915050565b61092b82610618565b67ffffffffffffffff8111156109445761094361042c565b5b61094e825461073b565b610959828285610895565b600060209050601f83116001811461098c576000841561097a578287015190505b6109848582610906565b8655506109ec565b601f19841661099a8661076c565b60005b828110156109c25784890151825560018201915060208501945060208101905061099d565b868310156109df57848901516109db601f8916826108e8565b8355505b6001600288020188555050505b50505050505056fea2646970667358221220477caef155d5a281373b6ae0c95a77184ff691501882b058bfd59654aa01592f64736f6c63430008130033","opcodes":"PUSH1 0x80 PUSH1 0x40 MSTORE CALLVALUE DUP1 ISZERO PUSH2 0x10 JUMPI PUSH1 0x0 DUP1 REVERT JUMPDEST POP PUSH2 0xA2A DUP1 PUSH2 0x20 PUSH1 0x0 CODECOPY PUSH1 0x0 RETURN INVALID PUSH1 0x80 PUSH1 0x40 MSTORE CALLVALUE DUP1 ISZERO PUSH2 0x10 JUMPI PUSH1 0x0 DUP1 REVERT JUMPDEST POP PUSH1 0x4 CALLDATASIZE LT PUSH2 0x62 JUMPI PUSH1 0x0 CALLDATALOAD PUSH1 0xE0 SHR DUP1 PUSH4 0x7149384 EQ PUSH2 0x67 JUMPI DUP1 PUSH4 0x1DE11E58 EQ PUSH2 0x83 JUMPI DUP1 PUSH4 0x2D8318EC EQ PUSH2 0xB3 JUMPI DUP1 PUSH4 0x7D2A521A EQ PUSH2 0xE3 JUMPI DUP1 PUSH4 0xAA552991 EQ PUSH2 0xFF JUMPI DUP1 PUSH4 0xF798D402 EQ PUSH2 0x12F JUMPI JUMPDEST PUSH1 0x0 DUP1 REVERT JUMPDEST PUSH2 0x81 PUSH1 0x4 DUP1 CALLDATASIZE SUB DUP2 ADD SWAP1 PUSH2 0x7C SWAP2 SWAP1 PUSH2 0x557 JUMP JUMPDEST PUSH2 0x14B JUMP JUMPDEST STOP JUMPDEST PUSH2 0x9D PUSH1 0x4 DUP1 CALLDATASIZE SUB DUP2 ADD SWAP1 PUSH2 0x98 SWAP2 SWAP1 PUSH2 0x5CF JUMP JUMPDEST PUSH2 0x17E JUMP JUMPDEST PUSH1 0x40 MLOAD PUSH2 0xAA SWAP2 SWAP1 PUSH2 0x697 JUMP JUMPDEST PUSH1 0x40 MLOAD DUP1 SWAP2 SUB SWAP1 RETURN JUMPDEST PUSH2 0xCD PUSH1 0x4 DUP1 CALLDATASIZE SUB DUP2 ADD SWAP1 PUSH2 0xC8 SWAP2 SWAP1 PUSH2 0x5CF JUMP JUMPDEST PUSH2 0x231 JUMP JUMPDEST PUSH1 0x40 MLOAD PUSH2 0xDA SWAP2 SWAP1 PUSH2 0x697 JUMP JUMPDEST PUSH1 0x40 MLOAD DUP1 SWAP2 SUB SWAP1 RETURN JUMPDEST PUSH2 0xFD PUSH1 0x4 DUP1 CALLDATASIZE SUB DUP2 ADD SWAP1 PUSH2 0xF8 SWAP2 SWAP1 PUSH2 0x557 JUMP JUMPDEST PUSH2 0x2E4 JUMP JUMPDEST STOP JUMPDEST PUSH2 0x119 PUSH1 0x4 DUP1 CALLDATASIZE SUB DUP2 ADD SWAP1 PUSH2 0x114 SWAP2 SWAP1 PUSH2 0x5CF JUMP JUMPDEST PUSH2 0x317 JUMP JUMPDEST PUSH1 0x40 MLOAD PUSH2 0x126 SWAP2 SWAP1 PUSH2 0x697 JUMP JUMPDEST PUSH1 0x40 MLOAD DUP1 SWAP2 SUB SWAP1 RETURN JUMPDEST PUSH2 0x149 PUSH1 0x4 DUP1 CALLDATASIZE SUB DUP2 ADD SWAP1 PUSH2 0x144 SWAP2 SWAP1 PUSH2 0x557 JUMP JUMPDEST PUSH2 0x3CA JUMP JUMPDEST STOP JUMPDEST DUP1 PUSH1 0x0 DUP4 PUSH1 0x40 MLOAD PUSH2 0x15C SWAP2 SWAP1 PUSH2 0x6F5 JUMP JUMPDEST SWAP1 DUP2 MSTORE PUSH1 0x20 ADD PUSH1 0x40 MLOAD DUP1 SWAP2 SUB SWAP1 KECCAK256 PUSH1 0x1 ADD SWAP1 DUP2 PUSH2 0x179 SWAP2 SWAP1 PUSH2 0x922 JUMP JUMPDEST POP POP POP JUMP JUMPDEST PUSH1 0x60 PUSH1 0x0 DUP3 PUSH1 0x40 MLOAD PUSH2 0x190 SWAP2 SWAP1 PUSH2 0x6F5 JUMP JUMPDEST SWAP1 DUP2 MSTORE PUSH1 0x20 ADD PUSH1 0x40 MLOAD DUP1 SWAP2 SUB SWAP1 KECCAK256 PUSH1 0x2 ADD DUP1 SLOAD PUSH2 0x1AC SWAP1 PUSH2 0x73B JUMP JUMPDEST DUP1 PUSH1 0x1F ADD PUSH1 0x20 DUP1 SWAP2 DIV MUL PUSH1 0x20 ADD PUSH1 0x40 MLOAD SWAP1 DUP2 ADD PUSH1 0x40 MSTORE DUP1 SWAP3 SWAP2 SWAP1 DUP2 DUP2 MSTORE PUSH1 0x20 ADD DUP3 DUP1 SLOAD PUSH2 0x1D8 SWAP1 PUSH2 0x73B JUMP JUMPDEST DUP1 ISZERO PUSH2 0x225 JUMPI DUP1 PUSH1 0x1F LT PUSH2 0x1FA JUMPI PUSH2 0x100 DUP1 DUP4 SLOAD DIV MUL DUP4 MSTORE SWAP2 PUSH1 0x20 ADD SWAP2 PUSH2 0x225 JUMP JUMPDEST DUP3 ADD SWAP2 SWAP1 PUSH1 0x0 MSTORE PUSH1 0x20 PUSH1 0x0 KECCAK256 SWAP1 JUMPDEST DUP2 SLOAD DUP2 MSTORE SWAP1 PUSH1 0x1 ADD SWAP1 PUSH1 0x20 ADD DUP1 DUP4 GT PUSH2 0x208 JUMPI DUP3 SWAP1 SUB PUSH1 0x1F AND DUP3 ADD SWAP2 JUMPDEST POP POP POP POP POP SWAP1 POP SWAP2 SWAP1 POP JUMP JUMPDEST PUSH1 0x60 PUSH1 0x0 DUP3 PUSH1 0x40 MLOAD PUSH2 0x243 SWAP2 SWAP1 PUSH2 0x6F5 JUMP JUMPDEST SWAP1 DUP2 MSTORE PUSH1 0x20 ADD PUSH1 0x40 MLOAD DUP1 SWAP2 SUB SWAP1 KECCAK256 PUSH1 0x0 ADD DUP1 SLOAD PUSH2 0x25F SWAP1 PUSH2 0x73B JUMP JUMPDEST DUP1 PUSH1 0x1F ADD PUSH1 0x20 DUP1 SWAP2 DIV MUL PUSH1 0x20 ADD PUSH1 0x40 MLOAD SWAP1 DUP2 ADD PUSH1 0x40 MSTORE DUP1 SWAP3 SWAP2 SWAP1 DUP2 DUP2 MSTORE PUSH1 0x20 ADD DUP3 DUP1 SLOAD PUSH2 0x28B SWAP1 PUSH2 0x73B JUMP JUMPDEST DUP1 ISZERO PUSH2 0x2D8 JUMPI DUP1 PUSH1 0x1F LT PUSH2 0x2AD JUMPI PUSH2 0x100 DUP1 DUP4 SLOAD DIV MUL DUP4 MSTORE SWAP2 PUSH1 0x20 ADD SWAP2 PUSH2 0x2D8 JUMP JUMPDEST DUP3 ADD SWAP2 SWAP1 PUSH1 0x0 MSTORE PUSH1 0x20 PUSH1 0x0 KECCAK256 SWAP1 JUMPDEST DUP2 SLOAD DUP2 MSTORE SWAP1 PUSH1 0x1 ADD SWAP1 PUSH1 0x20 ADD DUP1 DUP4 GT PUSH2 0x2BB JUMPI DUP3 SWAP1 SUB PUSH1 0x1F AND DUP3 ADD SWAP2 JUMPDEST POP POP POP POP POP SWAP1 POP SWAP2 SWAP1 POP JUMP JUMPDEST DUP1 PUSH1 0x0 DUP4 PUSH1 0x40 MLOAD PUSH2 0x2F5 SWAP2 SWAP1 PUSH2 0x6F5 JUMP JUMPDEST SWAP1 DUP2 MSTORE PUSH1 0x20 ADD PUSH1 0x40 MLOAD DUP1 SWAP2 SUB SWAP1 KECCAK256 PUSH1 0x0 ADD SWAP1 DUP2 PUSH2 0x312 SWAP2 SWAP1 PUSH2 0x922 JUMP JUMPDEST POP POP POP JUMP JUMPDEST PUSH1 0x60 PUSH1 0x0 DUP3 PUSH1 0x40 MLOAD PUSH2 0x329 SWAP2 SWAP1 PUSH2 0x6F5 JUMP JUMPDEST SWAP1 DUP2 MSTORE PUSH1 0x20 ADD PUSH1 0x40 MLOAD DUP1 SWAP2 SUB SWAP1 KECCAK256 PUSH1 0x1 ADD DUP1 SLOAD PUSH2 0x345 SWAP1 PUSH2 0x73B JUMP JUMPDEST DUP1 PUSH1 0x1F ADD PUSH1 0x20 DUP1 SWAP2 DIV MUL PUSH1 0x20 ADD PUSH1 0x40 MLOAD SWAP1 DUP2 ADD PUSH1 0x40 MSTORE DUP1 SWAP3 SWAP2 SWAP1 DUP2 DUP2 MSTORE PUSH1 0x20 ADD DUP3 DUP1 SLOAD PUSH2 0x371 SWAP1 PUSH2 0x73B JUMP JUMPDEST DUP1 ISZERO PUSH2 0x3BE JUMPI DUP1 PUSH1 0x1F LT PUSH2 0x393 JUMPI PUSH2 0x100 DUP1 DUP4 SLOAD DIV MUL DUP4 MSTORE SWAP2 PUSH1 0x20 ADD SWAP2 PUSH2 0x3BE JUMP JUMPDEST DUP3 ADD SWAP2 SWAP1 PUSH1 0x0 MSTORE PUSH1 0x20 PUSH1 0x0 KECCAK256 SWAP1 JUMPDEST DUP2 SLOAD DUP2 MSTORE SWAP1 PUSH1 0x1 ADD SWAP1 PUSH1 0x20 ADD DUP1 DUP4 GT PUSH2 0x3A1 JUMPI DUP3 SWAP1 SUB PUSH1 0x1F AND DUP3 ADD SWAP2 JUMPDEST POP POP POP POP POP SWAP1 POP SWAP2 SWAP1 POP JUMP JUMPDEST DUP1 PUSH1 0x0 DUP4 PUSH1 0x40 MLOAD PUSH2 0x3DB SWAP2 SWAP1 PUSH2 0x6F5 JUMP JUMPDEST SWAP1 DUP2 MSTORE PUSH1 0x20 ADD PUSH1 0x40 MLOAD DUP1 SWAP2 SUB SWAP1 KECCAK256 PUSH1 0x2 ADD SWAP1 DUP2 PUSH2 0x3F8 SWAP2 SWAP1 PUSH2 0x922 JUMP JUMPDEST POP POP POP JUMP JUMPDEST PUSH1 0x0 PUSH1 0x40 MLOAD SWAP1 POP SWAP1 JUMP JUMPDEST PUSH1 0x0 DUP1 REVERT JUMPDEST PUSH1 0x0 DUP1 REVERT JUMPDEST PUSH1 0x0 DUP1 REVERT JUMPDEST PUSH1 0x0 DUP1 REVERT JUMPDEST PUSH1 0x0 PUSH1 0x1F NOT PUSH1 0x1F DUP4 ADD AND SWAP1 POP SWAP2 SWAP1 POP JUMP JUMPDEST PUSH32 0x4E487B7100000000000000000000000000000000000000000000000000000000 PUSH1 0x0 MSTORE PUSH1 0x41 PUSH1 0x4 MSTORE PUSH1 0x24 PUSH1 0x0 REVERT JUMPDEST PUSH2 0x464 DUP3 PUSH2 0x41B JUMP JUMPDEST DUP2 ADD DUP2 DUP2 LT PUSH8 0xFFFFFFFFFFFFFFFF DUP3 GT OR ISZERO PUSH2 0x483 JUMPI PUSH2 0x482 PUSH2 0x42C JUMP JUMPDEST JUMPDEST DUP1 PUSH1 0x40 MSTORE POP POP POP JUMP JUMPDEST PUSH1 0x0 PUSH2 0x496 PUSH2 0x3FD JUMP JUMPDEST SWAP1 POP PUSH2 0x4A2 DUP3 DUP3 PUSH2 0x45B JUMP JUMPDEST SWAP2 SWAP1 POP JUMP JUMPDEST PUSH1 0x0 PUSH8 0xFFFFFFFFFFFFFFFF DUP3 GT ISZERO PUSH2 0x4C2 JUMPI PUSH2 0x4C1 PUSH2 0x42C JUMP JUMPDEST JUMPDEST PUSH2 0x4CB DUP3 PUSH2 0x41B JUMP JUMPDEST SWAP1 POP PUSH1 0x20 DUP2 ADD SWAP1 POP SWAP2 SWAP1 POP JUMP JUMPDEST DUP3 DUP2 DUP4 CALLDATACOPY PUSH1 0x0 DUP4 DUP4 ADD MSTORE POP POP POP JUMP JUMPDEST PUSH1 0x0 PUSH2 0x4FA PUSH2 0x4F5 DUP5 PUSH2 0x4A7 JUMP JUMPDEST PUSH2 0x48C JUMP JUMPDEST SWAP1 POP DUP3 DUP2 MSTORE PUSH1 0x20 DUP2 ADD DUP5 DUP5 DUP5 ADD GT ISZERO PUSH2 0x516 JUMPI PUSH2 0x515 PUSH2 0x416 JUMP JUMPDEST JUMPDEST PUSH2 0x521 DUP5 DUP3 DUP6 PUSH2 0x4D8 JUMP JUMPDEST POP SWAP4 SWAP3 POP POP POP JUMP JUMPDEST PUSH1 0x0 DUP3 PUSH1 0x1F DUP4 ADD SLT PUSH2 0x53E JUMPI PUSH2 0x53D PUSH2 0x411 JUMP JUMPDEST JUMPDEST DUP2 CALLDATALOAD PUSH2 0x54E DUP5 DUP3 PUSH1 0x20 DUP7 ADD PUSH2 0x4E7 JUMP JUMPDEST SWAP2 POP POP SWAP3 SWAP2 POP POP JUMP JUMPDEST PUSH1 0x0 DUP1 PUSH1 0x40 DUP4 DUP6 SUB SLT ISZERO PUSH2 0x56E JUMPI PUSH2 0x56D PUSH2 0x407 JUMP JUMPDEST JUMPDEST PUSH1 0x0 DUP4 ADD CALLDATALOAD PUSH8 0xFFFFFFFFFFFFFFFF DUP2 GT ISZERO PUSH2 0x58C JUMPI PUSH2 0x58B PUSH2 0x40C JUMP JUMPDEST JUMPDEST PUSH2 0x598 DUP6 DUP3 DUP7 ADD PUSH2 0x529 JUMP JUMPDEST SWAP3 POP POP PUSH1 0x20 DUP4 ADD CALLDATALOAD PUSH8 0xFFFFFFFFFFFFFFFF DUP2 GT ISZERO PUSH2 0x5B9 JUMPI PUSH2 0x5B8 PUSH2 0x40C JUMP JUMPDEST JUMPDEST PUSH2 0x5C5 DUP6 DUP3 DUP7 ADD PUSH2 0x529 JUMP JUMPDEST SWAP2 POP POP SWAP3 POP SWAP3 SWAP1 POP JUMP JUMPDEST PUSH1 0x0 PUSH1 0x20 DUP3 DUP5 SUB SLT ISZERO PUSH2 0x5E5 JUMPI PUSH2 0x5E4 PUSH2 0x407 JUMP JUMPDEST JUMPDEST PUSH1 0x0 DUP3 ADD CALLDATALOAD PUSH8 0xFFFFFFFFFFFFFFFF DUP2 GT ISZERO PUSH2 0x603 JUMPI PUSH2 0x602 PUSH2 0x40C JUMP JUMPDEST JUMPDEST PUSH2 0x60F DUP5 DUP3 DUP6 ADD PUSH2 0x529 JUMP JUMPDEST SWAP2 POP POP SWAP3 SWAP2 POP POP JUMP JUMPDEST PUSH1 0x0 DUP2 MLOAD SWAP1 POP SWAP2 SWAP1 POP JUMP JUMPDEST PUSH1 0x0 DUP3 DUP3 MSTORE PUSH1 0x20 DUP3 ADD SWAP1 POP SWAP3 SWAP2 POP POP JUMP JUMPDEST PUSH1 0x0 JUMPDEST DUP4 DUP2 LT ISZERO PUSH2 0x652 JUMPI DUP1 DUP3 ADD MLOAD DUP2 DUP5 ADD MSTORE PUSH1 0x20 DUP2 ADD SWAP1 POP PUSH2 0x637 JUMP JUMPDEST PUSH1 0x0 DUP5 DUP5 ADD MSTORE POP POP POP POP JUMP JUMPDEST PUSH1 0x0 PUSH2 0x669 DUP3 PUSH2 0x618 JUMP JUMPDEST PUSH2 0x673 DUP2 DUP6 PUSH2 0x623 JUMP JUMPDEST SWAP4 POP PUSH2 0x683 DUP2 DUP6 PUSH1 0x20 DUP7 ADD PUSH2 0x634 JUMP JUMPDEST PUSH2 0x68C DUP2 PUSH2 0x41B JUMP JUMPDEST DUP5 ADD SWAP2 POP POP SWAP3 SWAP2 POP POP JUMP JUMPDEST PUSH1 0x0 PUSH1 0x20 DUP3 ADD SWAP1 POP DUP2 DUP2 SUB PUSH1 0x0 DUP4 ADD MSTORE PUSH2 0x6B1 DUP2 DUP5 PUSH2 0x65E JUMP JUMPDEST SWAP1 POP SWAP3 SWAP2 POP POP JUMP JUMPDEST PUSH1 0x0 DUP2 SWAP1 POP SWAP3 SWAP2 POP POP JUMP JUMPDEST PUSH1 0x0 PUSH2 0x6CF DUP3 PUSH2 0x618 JUMP JUMPDEST PUSH2 0x6D9 DUP2 DUP6 PUSH2 0x6B9 JUMP JUMPDEST SWAP4 POP PUSH2 0x6E9 DUP2 DUP6 PUSH1 0x20 DUP7 ADD PUSH2 0x634 JUMP JUMPDEST DUP1 DUP5 ADD SWAP2 POP POP SWAP3 SWAP2 POP POP JUMP JUMPDEST PUSH1 0x0 PUSH2 0x701 DUP3 DUP5 PUSH2 0x6C4 JUMP JUMPDEST SWAP2 POP DUP2 SWAP1 POP SWAP3 SWAP2 POP POP JUMP JUMPDEST PUSH32 0x4E487B7100000000000000000000000000000000000000000000000000000000 PUSH1 0x0 MSTORE PUSH1 0x22 PUSH1 0x4 MSTORE PUSH1 0x24 PUSH1 0x0 REVERT JUMPDEST PUSH1 0x0 PUSH1 0x2 DUP3 DIV SWAP1 POP PUSH1 0x1 DUP3 AND DUP1 PUSH2 0x753 JUMPI PUSH1 0x7F DUP3 AND SWAP2 POP JUMPDEST PUSH1 0x20 DUP3 LT DUP2 SUB PUSH2 0x766 JUMPI PUSH2 0x765 PUSH2 0x70C JUMP JUMPDEST JUMPDEST POP SWAP2 SWAP1 POP JUMP JUMPDEST PUSH1 0x0 DUP2 SWAP1 POP DUP2 PUSH1 0x0 MSTORE PUSH1 0x20 PUSH1 0x0 KECCAK256 SWAP1 POP SWAP2 SWAP1 POP JUMP JUMPDEST PUSH1 0x0 PUSH1 0x20 PUSH1 0x1F DUP4 ADD DIV SWAP1 POP SWAP2 SWAP1 POP JUMP JUMPDEST PUSH1 0x0 DUP3 DUP3 SHL SWAP1 POP SWAP3 SWAP2 POP POP JUMP JUMPDEST PUSH1 0x0 PUSH1 0x8 DUP4 MUL PUSH2 0x7CE PUSH32 0xFFFFFFFFFFFFFFFFFFFFFFFFFFFFFFFFFFFFFFFFFFFFFFFFFFFFFFFFFFFFFFFF DUP3 PUSH2 0x791 JUMP JUMPDEST PUSH2 0x7D8 DUP7 DUP4 PUSH2 0x791 JUMP JUMPDEST SWAP6 POP DUP1 NOT DUP5 AND SWAP4 POP DUP1 DUP7 AND DUP5 OR SWAP3 POP POP POP SWAP4 SWAP3 POP POP POP JUMP JUMPDEST PUSH1 0x0 DUP2 SWAP1 POP SWAP2 SWAP1 POP JUMP JUMPDEST PUSH1 0x0 DUP2 SWAP1 POP SWAP2 SWAP1 POP JUMP JUMPDEST PUSH1 0x0 PUSH2 0x81F PUSH2 0x81A PUSH2 0x815 DUP5 PUSH2 0x7F0 JUMP JUMPDEST PUSH2 0x7FA JUMP JUMPDEST PUSH2 0x7F0 JUMP JUMPDEST SWAP1 POP SWAP2 SWAP1 POP JUMP JUMPDEST PUSH1 0x0 DUP2 SWAP1 POP SWAP2 SWAP1 POP JUMP JUMPDEST PUSH2 0x839 DUP4 PUSH2 0x804 JUMP JUMPDEST PUSH2 0x84D PUSH2 0x845 DUP3 PUSH2 0x826 JUMP JUMPDEST DUP5 DUP5 SLOAD PUSH2 0x79E JUMP JUMPDEST DUP3 SSTORE POP POP POP POP JUMP JUMPDEST PUSH1 0x0 SWAP1 JUMP JUMPDEST PUSH2 0x862 PUSH2 0x855 JUMP JUMPDEST PUSH2 0x86D DUP2 DUP5 DUP5 PUSH2 0x830 JUMP JUMPDEST POP POP POP JUMP JUMPDEST JUMPDEST DUP2 DUP2 LT ISZERO PUSH2 0x891 JUMPI PUSH2 0x886 PUSH1 0x0 DUP3 PUSH2 0x85A JUMP JUMPDEST PUSH1 0x1 DUP2 ADD SWAP1 POP PUSH2 0x873 JUMP JUMPDEST POP POP JUMP JUMPDEST PUSH1 0x1F DUP3 GT ISZERO PUSH2 0x8D6 JUMPI PUSH2 0x8A7 DUP2 PUSH2 0x76C JUMP JUMPDEST PUSH2 0x8B0 DUP5 PUSH2 0x781 JUMP JUMPDEST DUP2 ADD PUSH1 0x20 DUP6 LT ISZERO PUSH2 0x8BF JUMPI DUP2 SWAP1 POP JUMPDEST PUSH2 0x8D3 PUSH2 0x8CB DUP6 PUSH2 0x781 JUMP JUMPDEST DUP4 ADD DUP3 PUSH2 0x872 JUMP JUMPDEST POP POP JUMPDEST POP POP POP JUMP JUMPDEST PUSH1 0x0 DUP3 DUP3 SHR SWAP1 POP SWAP3 SWAP2 POP POP JUMP JUMPDEST PUSH1 0x0 PUSH2 0x8F9 PUSH1 0x0 NOT DUP5 PUSH1 0x8 MUL PUSH2 0x8DB JUMP JUMPDEST NOT DUP1 DUP4 AND SWAP2 POP POP SWAP3 SWAP2 POP POP JUMP JUMPDEST PUSH1 0x0 PUSH2 0x912 DUP4 DUP4 PUSH2 0x8E8 JUMP JUMPDEST SWAP2 POP DUP3 PUSH1 0x2 MUL DUP3 OR SWAP1 POP SWAP3 SWAP2 POP POP JUMP JUMPDEST PUSH2 0x92B DUP3 PUSH2 0x618 JUMP JUMPDEST PUSH8 0xFFFFFFFFFFFFFFFF DUP2 GT ISZERO PUSH2 0x944 JUMPI PUSH2 0x943 PUSH2 0x42C JUMP JUMPDEST JUMPDEST PUSH2 0x94E DUP3 SLOAD PUSH2 0x73B JUMP JUMPDEST PUSH2 0x959 DUP3 DUP3 DUP6 PUSH2 0x895 JUMP JUMPDEST PUSH1 0x0 PUSH1 0x20 SWAP1 POP PUSH1 0x1F DUP4 GT PUSH1 0x1 DUP2 EQ PUSH2 0x98C JUMPI PUSH1 0x0 DUP5 ISZERO PUSH2 0x97A JUMPI DUP3 DUP8 ADD MLOAD SWAP1 POP JUMPDEST PUSH2 0x984 DUP6 DUP3 PUSH2 0x906 JUMP JUMPDEST DUP7 SSTORE POP PUSH2 0x9EC JUMP JUMPDEST PUSH1 0x1F NOT DUP5 AND PUSH2 0x99A DUP7 PUSH2 0x76C JUMP JUMPDEST PUSH1 0x0 JUMPDEST DUP3 DUP2 LT ISZERO PUSH2 0x9C2 JUMPI DUP5 DUP10 ADD MLOAD DUP3 SSTORE PUSH1 0x1 DUP3 ADD SWAP2 POP PUSH1 0x20 DUP6 ADD SWAP5 POP PUSH1 0x20 DUP2 ADD SWAP1 POP PUSH2 0x99D JUMP JUMPDEST DUP7 DUP4 LT ISZERO PUSH2 0x9DF JUMPI DUP5 DUP10 ADD MLOAD PUSH2 0x9DB PUSH1 0x1F DUP10 AND DUP3 PUSH2 0x8E8 JUMP JUMPDEST DUP4 SSTORE POP JUMPDEST PUSH1 0x1 PUSH1 0x2 DUP9 MUL ADD DUP9 SSTORE POP POP POP JUMPDEST POP POP POP POP POP POP JUMP INVALID LOG2 PUSH5 0x6970667358 0x22 SLT KECCAK256 SELFBALANCE PUSH29 0xAEF155D5A281373B6AE0C95A77184FF691501882B058BFD59654AA0159 0x2F PUSH5 0x736F6C6343 STOP ADDMOD SGT STOP CALLER "},"methodIdentifiers":{"addDocHospital(string,string)":"f798d402","addDocName(string,string)":"7d2a521a","addDocSpeciality(string,string)":"07149384","getDocHospital(string)":"1de11e58","getDocName(string)":"2d8318ec","getDocSpeciality(string)":"aa552991"}}}}}