{
  "_format": "hh-sol-artifact-1",
  "contractName": "AccessControl",
  "sourceName": "contracts/AccessControl.sol",
  "abi": [
    {
      "inputs": [],
      "stateMutability": "nonpayable",
      "type": "constructor"
    },
    {
      "inputs": [
        {
          "internalType": "address",
          "name": "_doctorAddress",
          "type": "address"
        }
      ],
      "name": "addAuthorisedDoctor",
      "outputs": [],
      "stateMutability": "nonpayable",
      "type": "function"
    },
    {
      "inputs": [
        {
          "internalType": "address",
          "name": "",
          "type": "address"
        }
      ],
      "name": "authDoctor",
      "outputs": [
        {
          "internalType": "bool",
          "name": "",
          "type": "bool"
        }
      ],
      "stateMutability": "view",
      "type": "function"
    },
    {
      "inputs": [
        {
          "internalType": "uint256",
          "name": "",
          "type": "uint256"
        }
      ],
      "name": "authPatient",
      "outputs": [
        {
          "internalType": "address",
          "name": "",
          "type": "address"
        }
      ],
      "stateMutability": "view",
      "type": "function"
    },
    {
      "inputs": [],
      "name": "owner",
      "outputs": [
        {
          "internalType": "address",
          "name": "",
          "type": "address"
        }
      ],
      "stateMutability": "view",
      "type": "function"
    },
    {
      "inputs": [
        {
          "internalType": "address",
          "name": "_doctorAddress",
          "type": "address"
        }
      ],
      "name": "removeAuthorisedDoctor",
      "outputs": [],
      "stateMutability": "nonpayable",
      "type": "function"
    }
  ],
  "bytecode": "0x608060405234801561001057600080fd5b50336000806101000a81548173ffffffffffffffffffffffffffffffffffffffff021916908373ffffffffffffffffffffffffffffffffffffffff16021790555060018060008060009054906101000a900473ffffffffffffffffffffffffffffffffffffffff1673ffffffffffffffffffffffffffffffffffffffff1673ffffffffffffffffffffffffffffffffffffffff16815260200190815260200160002060006101000a81548160ff0219169083151502179055506105f7806100d86000396000f3fe608060405234801561001057600080fd5b50600436106100575760003560e01c806325da1c771461005c57806342d6883814610078578063622276bc146100945780638da5cb5b146100c4578063ba8c23aa146100e2575b600080fd5b610076600480360381019061007191906103c2565b610112565b005b610092600480360381019061008d91906103c2565b6101ff565b005b6100ae60048036038101906100a99190610425565b6102e8565b6040516100bb9190610461565b60405180910390f35b6100cc61031b565b6040516100d99190610461565b60405180910390f35b6100fc60048036038101906100f791906103c2565b61033f565b6040516101099190610497565b60405180910390f35b60011515600160003373ffffffffffffffffffffffffffffffffffffffff1673ffffffffffffffffffffffffffffffffffffffff16815260200190815260200160002060009054906101000a900460ff161515146101a5576040517f08c379a000000000000000000000000000000000000000000000000000000000815260040161019c9061050f565b60405180910390fd5b60018060008373ffffffffffffffffffffffffffffffffffffffff1673ffffffffffffffffffffffffffffffffffffffff16815260200190815260200160002060006101000a81548160ff02191690831515021790555050565b60008054906101000a900473ffffffffffffffffffffffffffffffffffffffff1673ffffffffffffffffffffffffffffffffffffffff163373ffffffffffffffffffffffffffffffffffffffff161461028d576040517f08c379a0000000000000000000000000000000000000000000000000000000008152600401610284906105a1565b60405180910390fd5b6000600160008373ffffffffffffffffffffffffffffffffffffffff1673ffffffffffffffffffffffffffffffffffffffff16815260200190815260200160002060006101000a81548160ff02191690831515021790555050565b60026020528060005260406000206000915054906101000a900473ffffffffffffffffffffffffffffffffffffffff1681565b60008054906101000a900473ffffffffffffffffffffffffffffffffffffffff1681565b60016020528060005260406000206000915054906101000a900460ff1681565b600080fd5b600073ffffffffffffffffffffffffffffffffffffffff82169050919050565b600061038f82610364565b9050919050565b61039f81610384565b81146103aa57600080fd5b50565b6000813590506103bc81610396565b92915050565b6000602082840312156103d8576103d761035f565b5b60006103e6848285016103ad565b91505092915050565b6000819050919050565b610402816103ef565b811461040d57600080fd5b50565b60008135905061041f816103f9565b92915050565b60006020828403121561043b5761043a61035f565b5b600061044984828501610410565b91505092915050565b61045b81610384565b82525050565b60006020820190506104766000830184610452565b92915050565b60008115159050919050565b6104918161047c565b82525050565b60006020820190506104ac6000830184610488565b92915050565b600082825260208201905092915050565b7f4e6f74206120617574686f726973656420646f63746f72000000000000000000600082015250565b60006104f96017836104b2565b9150610504826104c3565b602082019050919050565b60006020820190508181036000830152610528816104ec565b9050919050565b7f596f752077696c6c206e65656420746f20636f6e7461637420746865206f776e60008201527f6572000000000000000000000000000000000000000000000000000000000000602082015250565b600061058b6022836104b2565b91506105968261052f565b604082019050919050565b600060208201905081810360008301526105ba8161057e565b905091905056fea26469706673582212201c7077c688b35729cd48404e9b16b6b70fecc86b0ef01ff118ee1a3a8cf9c0c664736f6c63430008130033",
  "linkReferences": {},
  "deployedLinkReferences": {}
}