{
  "_format": "hh-sol-artifact-1",
  "contractName": "Records",
  "sourceName": "contracts/Records.sol",
  "abi": [
    {
      "inputs": [
        {
          "internalType": "uint256",
          "name": "_patientId",
          "type": "uint256"
        },
        {
          "internalType": "string",
          "name": "_currentDiagnosis",
          "type": "string"
        }
      ],
      "name": "addCurrentDiagnosis",
      "outputs": [],
      "stateMutability": "nonpayable",
      "type": "function"
    },
    {
      "inputs": [
        {
          "internalType": "uint256",
          "name": "_patientId",
          "type": "uint256"
        },
        {
          "internalType": "string",
          "name": "_currentMedicalDosage",
          "type": "string"
        }
      ],
      "name": "addCurrentMedicalDosage",
      "outputs": [],
      "stateMutability": "nonpayable",
      "type": "function"
    },
    {
      "inputs": [
        {
          "internalType": "uint256",
          "name": "_patientId",
          "type": "uint256"
        },
        {
          "internalType": "string",
          "name": "_date",
          "type": "string"
        }
      ],
      "name": "addLastUpdated",
      "outputs": [],
      "stateMutability": "nonpayable",
      "type": "function"
    },
    {
      "inputs": [
        {
          "internalType": "uint256",
          "name": "_patientId",
          "type": "uint256"
        },
        {
          "internalType": "string",
          "name": "_updatedBy",
          "type": "string"
        }
      ],
      "name": "addUpdatedBy",
      "outputs": [],
      "stateMutability": "nonpayable",
      "type": "function"
    },
    {
      "inputs": [
        {
          "internalType": "uint256",
          "name": "_patientId",
          "type": "uint256"
        }
      ],
      "name": "getCurrentDiagnosis",
      "outputs": [
        {
          "internalType": "string",
          "name": "",
          "type": "string"
        }
      ],
      "stateMutability": "view",
      "type": "function"
    },
    {
      "inputs": [
        {
          "internalType": "uint256",
          "name": "_patientId",
          "type": "uint256"
        }
      ],
      "name": "getCurrentMedicalDosage",
      "outputs": [
        {
          "internalType": "string",
          "name": "",
          "type": "string"
        }
      ],
      "stateMutability": "view",
      "type": "function"
    },
    {
      "inputs": [
        {
          "internalType": "uint256",
          "name": "_patientId",
          "type": "uint256"
        }
      ],
      "name": "getLastUpdated",
      "outputs": [
        {
          "internalType": "string",
          "name": "",
          "type": "string"
        }
      ],
      "stateMutability": "view",
      "type": "function"
    },
    {
      "inputs": [
        {
          "internalType": "uint256",
          "name": "_patientId",
          "type": "uint256"
        }
      ],
      "name": "getUpdatedBy",
      "outputs": [
        {
          "internalType": "string",
          "name": "",
          "type": "string"
        }
      ],
      "stateMutability": "view",
      "type": "function"
    }
  ],
  "bytecode": "0x608060405234801561001057600080fd5b50610ac3806100206000396000f3fe608060405234801561001057600080fd5b50600436106100885760003560e01c8063bb0f9e791161005b578063bb0f9e7914610125578063d48e747714610155578063ea2f14b114610171578063ec7fc5b8146101a157610088565b806306b619341461008d5780632834f8fc146100a957806384f7e77e146100d9578063b0cdce4c146100f5575b600080fd5b6100a760048036038101906100a29190610685565b6101bd565b005b6100c360048036038101906100be91906106e1565b6101e4565b6040516100d0919061078d565b60405180910390f35b6100f360048036038101906100ee9190610685565b61028b565b005b61010f600480360381019061010a91906106e1565b6102b2565b60405161011c919061078d565b60405180910390f35b61013f600480360381019061013a91906106e1565b610359565b60405161014c919061078d565b60405180910390f35b61016f600480360381019061016a9190610685565b610400565b005b61018b600480360381019061018691906106e1565b610427565b604051610198919061078d565b60405180910390f35b6101bb60048036038101906101b69190610685565b6104ce565b005b8060008084815260200190815260200160002060030190816101df91906109bb565b505050565b60606000808381526020019081526020016000206003018054610206906107de565b80601f0160208091040260200160405190810160405280929190818152602001828054610232906107de565b801561027f5780601f106102545761010080835404028352916020019161027f565b820191906000526020600020905b81548152906001019060200180831161026257829003601f168201915b50505050509050919050565b8060008084815260200190815260200160002060010190816102ad91906109bb565b505050565b606060008083815260200190815260200160002060000180546102d4906107de565b80601f0160208091040260200160405190810160405280929190818152602001828054610300906107de565b801561034d5780601f106103225761010080835404028352916020019161034d565b820191906000526020600020905b81548152906001019060200180831161033057829003601f168201915b50505050509050919050565b6060600080838152602001908152602001600020600201805461037b906107de565b80601f01602080910402602001604051908101604052809291908181526020018280546103a7906107de565b80156103f45780601f106103c9576101008083540402835291602001916103f4565b820191906000526020600020905b8154815290600101906020018083116103d757829003601f168201915b50505050509050919050565b80600080848152602001908152602001600020600201908161042291906109bb565b505050565b60606000808381526020019081526020016000206001018054610449906107de565b80601f0160208091040260200160405190810160405280929190818152602001828054610475906107de565b80156104c25780601f10610497576101008083540402835291602001916104c2565b820191906000526020600020905b8154815290600101906020018083116104a557829003601f168201915b50505050509050919050565b8060008084815260200190815260200160002060000190816104f091906109bb565b505050565b6000604051905090565b600080fd5b600080fd5b6000819050919050565b61051c81610509565b811461052757600080fd5b50565b60008135905061053981610513565b92915050565b600080fd5b600080fd5b6000601f19601f8301169050919050565b7f4e487b7100000000000000000000000000000000000000000000000000000000600052604160045260246000fd5b61059282610549565b810181811067ffffffffffffffff821117156105b1576105b061055a565b5b80604052505050565b60006105c46104f5565b90506105d08282610589565b919050565b600067ffffffffffffffff8211156105f0576105ef61055a565b5b6105f982610549565b9050602081019050919050565b82818337600083830152505050565b6000610628610623846105d5565b6105ba565b90508281526020810184848401111561064457610643610544565b5b61064f848285610606565b509392505050565b600082601f83011261066c5761066b61053f565b5b813561067c848260208601610615565b91505092915050565b6000806040838503121561069c5761069b6104ff565b5b60006106aa8582860161052a565b925050602083013567ffffffffffffffff8111156106cb576106ca610504565b5b6106d785828601610657565b9150509250929050565b6000602082840312156106f7576106f66104ff565b5b60006107058482850161052a565b91505092915050565b600081519050919050565b600082825260208201905092915050565b60005b8381101561074857808201518184015260208101905061072d565b60008484015250505050565b600061075f8261070e565b6107698185610719565b935061077981856020860161072a565b61078281610549565b840191505092915050565b600060208201905081810360008301526107a78184610754565b905092915050565b7f4e487b7100000000000000000000000000000000000000000000000000000000600052602260045260246000fd5b600060028204905060018216806107f657607f821691505b602082108103610809576108086107af565b5b50919050565b60008190508160005260206000209050919050565b60006020601f8301049050919050565b600082821b905092915050565b6000600883026108717fffffffffffffffffffffffffffffffffffffffffffffffffffffffffffffffff82610834565b61087b8683610834565b95508019841693508086168417925050509392505050565b6000819050919050565b60006108b86108b36108ae84610509565b610893565b610509565b9050919050565b6000819050919050565b6108d28361089d565b6108e66108de826108bf565b848454610841565b825550505050565b600090565b6108fb6108ee565b6109068184846108c9565b505050565b5b8181101561092a5761091f6000826108f3565b60018101905061090c565b5050565b601f82111561096f576109408161080f565b61094984610824565b81016020851015610958578190505b61096c61096485610824565b83018261090b565b50505b505050565b600082821c905092915050565b600061099260001984600802610974565b1980831691505092915050565b60006109ab8383610981565b9150826002028217905092915050565b6109c48261070e565b67ffffffffffffffff8111156109dd576109dc61055a565b5b6109e782546107de565b6109f282828561092e565b600060209050601f831160018114610a255760008415610a13578287015190505b610a1d858261099f565b865550610a85565b601f198416610a338661080f565b60005b82811015610a5b57848901518255600182019150602085019450602081019050610a36565b86831015610a785784890151610a74601f891682610981565b8355505b6001600288020188555050505b50505050505056fea2646970667358221220cd00124af00bbaa41ca0d2a8bb76f9069bf0c8f994b95cc46004ea74dc5cda5a64736f6c63430008130033",
  "linkReferences": {},
  "deployedLinkReferences": {}
}