{
  "_format": "hh-sol-artifact-1",
  "contractName": "Patients",
  "sourceName": "contracts/Patients.sol",
  "abi": [
    {
      "inputs": [
        {
          "internalType": "uint256",
          "name": "_patientId",
          "type": "uint256"
        },
        {
          "internalType": "string",
          "name": "_allergy",
          "type": "string"
        }
      ],
      "name": "addPatientAllergies",
      "outputs": [],
      "stateMutability": "nonpayable",
      "type": "function"
    },
    {
      "inputs": [
        {
          "internalType": "uint256",
          "name": "_patientId",
          "type": "uint256"
        },
        {
          "internalType": "string",
          "name": "_bloodGroup",
          "type": "string"
        }
      ],
      "name": "addPatientBloodGroup",
      "outputs": [],
      "stateMutability": "nonpayable",
      "type": "function"
    },
    {
      "inputs": [
        {
          "internalType": "uint256",
          "name": "_patientId",
          "type": "uint256"
        },
        {
          "internalType": "string",
          "name": "_patientDateOfBirth",
          "type": "string"
        }
      ],
      "name": "addPatientDateOfBirth",
      "outputs": [],
      "stateMutability": "nonpayable",
      "type": "function"
    },
    {
      "inputs": [
        {
          "internalType": "uint256",
          "name": "_patientId",
          "type": "uint256"
        },
        {
          "internalType": "string",
          "name": "_patientEmail",
          "type": "string"
        }
      ],
      "name": "addPatientEmail",
      "outputs": [],
      "stateMutability": "nonpayable",
      "type": "function"
    },
    {
      "inputs": [
        {
          "internalType": "uint256",
          "name": "_patientId",
          "type": "uint256"
        },
        {
          "internalType": "string",
          "name": "_patientGender",
          "type": "string"
        }
      ],
      "name": "addPatientGender",
      "outputs": [],
      "stateMutability": "nonpayable",
      "type": "function"
    },
    {
      "inputs": [
        {
          "internalType": "uint256",
          "name": "_patientId",
          "type": "uint256"
        },
        {
          "internalType": "string",
          "name": "_name",
          "type": "string"
        }
      ],
      "name": "addPatientName",
      "outputs": [],
      "stateMutability": "nonpayable",
      "type": "function"
    },
    {
      "inputs": [
        {
          "internalType": "uint256",
          "name": "_patientId",
          "type": "uint256"
        }
      ],
      "name": "getPatientAllergies",
      "outputs": [
        {
          "internalType": "string",
          "name": "",
          "type": "string"
        }
      ],
      "stateMutability": "view",
      "type": "function"
    },
    {
      "inputs": [
        {
          "internalType": "uint256",
          "name": "_patientId",
          "type": "uint256"
        }
      ],
      "name": "getPatientBloodGroup",
      "outputs": [
        {
          "internalType": "string",
          "name": "",
          "type": "string"
        }
      ],
      "stateMutability": "view",
      "type": "function"
    },
    {
      "inputs": [
        {
          "internalType": "uint256",
          "name": "_patientId",
          "type": "uint256"
        }
      ],
      "name": "getPatientDateOfBirth",
      "outputs": [
        {
          "internalType": "string",
          "name": "",
          "type": "string"
        }
      ],
      "stateMutability": "view",
      "type": "function"
    },
    {
      "inputs": [
        {
          "internalType": "uint256",
          "name": "_patientId",
          "type": "uint256"
        }
      ],
      "name": "getPatientEmail",
      "outputs": [
        {
          "internalType": "string",
          "name": "",
          "type": "string"
        }
      ],
      "stateMutability": "view",
      "type": "function"
    },
    {
      "inputs": [
        {
          "internalType": "uint256",
          "name": "_patientId",
          "type": "uint256"
        }
      ],
      "name": "getPatientGender",
      "outputs": [
        {
          "internalType": "string",
          "name": "",
          "type": "string"
        }
      ],
      "stateMutability": "view",
      "type": "function"
    },
    {
      "inputs": [
        {
          "internalType": "uint256",
          "name": "_patientId",
          "type": "uint256"
        }
      ],
      "name": "getPatientName",
      "outputs": [
        {
          "internalType": "string",
          "name": "",
          "type": "string"
        }
      ],
      "stateMutability": "view",
      "type": "function"
    },
    {
      "inputs": [
        {
          "internalType": "uint256",
          "name": "_patientId",
          "type": "uint256"
        }
      ],
      "name": "registerPatient",
      "outputs": [],
      "stateMutability": "nonpayable",
      "type": "function"
    }
  ],
  "bytecode": "0x608060405234801561001057600080fd5b50610e3b806100206000396000f3fe608060405234801561001057600080fd5b50600436106100cf5760003560e01c80638d00dbb31161008c578063b467defc11610066578063b467defc14610234578063d142c3d314610250578063d3cd424a14610280578063ea107ae11461029c576100cf565b80638d00dbb3146101cc578063932cf1bd146101fc578063a9b244f614610218576100cf565b80631360a5d8146100d45780632a011e5f146100f05780634c10ffbc1461012057806358c860ec1461015057806372b26ab51461018057806386c85619146101b0575b600080fd5b6100ee60048036038101906100e99190610991565b6102b8565b005b61010a600480360381019061010591906109ed565b6102df565b6040516101179190610a99565b60405180910390f35b61013a600480360381019061013591906109ed565b610386565b6040516101479190610a99565b60405180910390f35b61016a600480360381019061016591906109ed565b61042d565b6040516101779190610a99565b60405180910390f35b61019a600480360381019061019591906109ed565b6104d4565b6040516101a79190610a99565b60405180910390f35b6101ca60048036038101906101c591906109ed565b61057b565b005b6101e660048036038101906101e191906109ed565b6105f0565b6040516101f39190610a99565b60405180910390f35b61021660048036038101906102119190610991565b610697565b005b610232600480360381019061022d9190610991565b6106be565b005b61024e60048036038101906102499190610991565b6106e5565b005b61026a600480360381019061026591906109ed565b61070c565b6040516102779190610a99565b60405180910390f35b61029a60048036038101906102959190610991565b6107b3565b005b6102b660048036038101906102b19190610991565b6107da565b005b8060008084815260200190815260200160002060030190816102da9190610cc7565b505050565b6060600080838152602001908152602001600020600501805461030190610aea565b80601f016020809104026020016040519081016040528092919081815260200182805461032d90610aea565b801561037a5780601f1061034f5761010080835404028352916020019161037a565b820191906000526020600020905b81548152906001019060200180831161035d57829003601f168201915b50505050509050919050565b606060008083815260200190815260200160002060030180546103a890610aea565b80601f01602080910402602001604051908101604052809291908181526020018280546103d490610aea565b80156104215780601f106103f657610100808354040283529160200191610421565b820191906000526020600020905b81548152906001019060200180831161040457829003601f168201915b50505050509050919050565b6060600080838152602001908152602001600020600101805461044f90610aea565b80601f016020809104026020016040519081016040528092919081815260200182805461047b90610aea565b80156104c85780601f1061049d576101008083540402835291602001916104c8565b820191906000526020600020905b8154815290600101906020018083116104ab57829003601f168201915b50505050509050919050565b606060008083815260200190815260200160002060040180546104f690610aea565b80601f016020809104026020016040519081016040528092919081815260200182805461052290610aea565b801561056f5780601f106105445761010080835404028352916020019161056f565b820191906000526020600020905b81548152906001019060200180831161055257829003601f168201915b50505050509050919050565b600080600083815260200190815260200160002060020154146105d3576040517f08c379a00000000000000000000000000000000000000000000000000000000081526004016105ca90610de5565b60405180910390fd5b806000808381526020019081526020016000206002018190555050565b6060600080838152602001908152602001600020600601805461061290610aea565b80601f016020809104026020016040519081016040528092919081815260200182805461063e90610aea565b801561068b5780601f106106605761010080835404028352916020019161068b565b820191906000526020600020905b81548152906001019060200180831161066e57829003601f168201915b50505050509050919050565b8060008084815260200190815260200160002060050190816106b99190610cc7565b505050565b8060008084815260200190815260200160002060040190816106e09190610cc7565b505050565b8060008084815260200190815260200160002060060190816107079190610cc7565b505050565b6060600080838152602001908152602001600020600001805461072e90610aea565b80601f016020809104026020016040519081016040528092919081815260200182805461075a90610aea565b80156107a75780601f1061077c576101008083540402835291602001916107a7565b820191906000526020600020905b81548152906001019060200180831161078a57829003601f168201915b50505050509050919050565b8060008084815260200190815260200160002060000190816107d59190610cc7565b505050565b8060008084815260200190815260200160002060010190816107fc9190610cc7565b505050565b6000604051905090565b600080fd5b600080fd5b6000819050919050565b61082881610815565b811461083357600080fd5b50565b6000813590506108458161081f565b92915050565b600080fd5b600080fd5b6000601f19601f8301169050919050565b7f4e487b7100000000000000000000000000000000000000000000000000000000600052604160045260246000fd5b61089e82610855565b810181811067ffffffffffffffff821117156108bd576108bc610866565b5b80604052505050565b60006108d0610801565b90506108dc8282610895565b919050565b600067ffffffffffffffff8211156108fc576108fb610866565b5b61090582610855565b9050602081019050919050565b82818337600083830152505050565b600061093461092f846108e1565b6108c6565b9050828152602081018484840111156109505761094f610850565b5b61095b848285610912565b509392505050565b600082601f8301126109785761097761084b565b5b8135610988848260208601610921565b91505092915050565b600080604083850312156109a8576109a761080b565b5b60006109b685828601610836565b925050602083013567ffffffffffffffff8111156109d7576109d6610810565b5b6109e385828601610963565b9150509250929050565b600060208284031215610a0357610a0261080b565b5b6000610a1184828501610836565b91505092915050565b600081519050919050565b600082825260208201905092915050565b60005b83811015610a54578082015181840152602081019050610a39565b60008484015250505050565b6000610a6b82610a1a565b610a758185610a25565b9350610a85818560208601610a36565b610a8e81610855565b840191505092915050565b60006020820190508181036000830152610ab38184610a60565b905092915050565b7f4e487b7100000000000000000000000000000000000000000000000000000000600052602260045260246000fd5b60006002820490506001821680610b0257607f821691505b602082108103610b1557610b14610abb565b5b50919050565b60008190508160005260206000209050919050565b60006020601f8301049050919050565b600082821b905092915050565b600060088302610b7d7fffffffffffffffffffffffffffffffffffffffffffffffffffffffffffffffff82610b40565b610b878683610b40565b95508019841693508086168417925050509392505050565b6000819050919050565b6000610bc4610bbf610bba84610815565b610b9f565b610815565b9050919050565b6000819050919050565b610bde83610ba9565b610bf2610bea82610bcb565b848454610b4d565b825550505050565b600090565b610c07610bfa565b610c12818484610bd5565b505050565b5b81811015610c3657610c2b600082610bff565b600181019050610c18565b5050565b601f821115610c7b57610c4c81610b1b565b610c5584610b30565b81016020851015610c64578190505b610c78610c7085610b30565b830182610c17565b50505b505050565b600082821c905092915050565b6000610c9e60001984600802610c80565b1980831691505092915050565b6000610cb78383610c8d565b9150826002028217905092915050565b610cd082610a1a565b67ffffffffffffffff811115610ce957610ce8610866565b5b610cf38254610aea565b610cfe828285610c3a565b600060209050601f831160018114610d315760008415610d1f578287015190505b610d298582610cab565b865550610d91565b601f198416610d3f86610b1b565b60005b82811015610d6757848901518255600182019150602085019450602081019050610d42565b86831015610d845784890151610d80601f891682610c8d565b8355505b6001600288020188555050505b505050505050565b7f616c726561647920726567697374657265640000000000000000000000000000600082015250565b6000610dcf601283610a25565b9150610dda82610d99565b602082019050919050565b60006020820190508181036000830152610dfe81610dc2565b905091905056fea2646970667358221220c674c1b45777479fffc1fcf19bd012b1929acc8302b2c89567539fde5657467264736f6c63430008130033",
  "linkReferences": {},
  "deployedLinkReferences": {}
}