{
  "_format": "hh-sol-artifact-1",
  "contractName": "MedicalInfo",
  "sourceName": "contracts/MedicalInfo.sol",
  "abi": [
    {
      "inputs": [
        {
          "internalType": "contract Patients",
          "name": "_patientsContractAddress",
          "type": "address"
        },
        {
          "internalType": "contract Doctors",
          "name": "_doctorsContractAddress",
          "type": "address"
        },
        {
          "internalType": "contract Records",
          "name": "_recordsContractAddress",
          "type": "address"
        }
      ],
      "stateMutability": "nonpayable",
      "type": "constructor"
    },
    {
      "inputs": [
        {
          "internalType": "address",
          "name": "_doctorAddress",
          "type": "address"
        }
      ],
      "name": "addAuthorisedDoctor",
      "outputs": [],
      "stateMutability": "nonpayable",
      "type": "function"
    },
    {
      "inputs": [
        {
          "internalType": "string",
          "name": "_doctorName",
          "type": "string"
        },
        {
          "internalType": "string",
          "name": "_doctorId",
          "type": "string"
        },
        {
          "internalType": "string",
          "name": "_doctorSpeciality",
          "type": "string"
        },
        {
          "internalType": "string",
          "name": "_doctorHospital",
          "type": "string"
        }
      ],
      "name": "addMedicalInfoDoctor",
      "outputs": [],
      "stateMutability": "nonpayable",
      "type": "function"
    },
    {
      "inputs": [
        {
          "internalType": "string",
          "name": "_patientName",
          "type": "string"
        },
        {
          "internalType": "uint256",
          "name": "_patientId",
          "type": "uint256"
        },
        {
          "internalType": "string",
          "name": "_patientBloodGroup",
          "type": "string"
        },
        {
          "internalType": "string",
          "name": "_patientGender",
          "type": "string"
        },
        {
          "internalType": "string",
          "name": "_patientDateOfBirth",
          "type": "string"
        },
        {
          "internalType": "string",
          "name": "_allergiesKnown",
          "type": "string"
        },
        {
          "internalType": "address",
          "name": "_patientWalletAddress",
          "type": "address"
        }
      ],
      "name": "addMedicalInfoPatient",
      "outputs": [],
      "stateMutability": "nonpayable",
      "type": "function"
    },
    {
      "inputs": [
        {
          "internalType": "uint256",
          "name": "_patientId",
          "type": "uint256"
        },
        {
          "internalType": "string",
          "name": "_lastUpdated",
          "type": "string"
        },
        {
          "internalType": "string",
          "name": "_currentMedicalDosage",
          "type": "string"
        },
        {
          "internalType": "string",
          "name": "_updatedBy",
          "type": "string"
        },
        {
          "internalType": "string",
          "name": "_currentDiagnosis",
          "type": "string"
        }
      ],
      "name": "addMedicalRecords",
      "outputs": [],
      "stateMutability": "nonpayable",
      "type": "function"
    },
    {
      "inputs": [
        {
          "internalType": "address",
          "name": "",
          "type": "address"
        }
      ],
      "name": "authDoctor",
      "outputs": [
        {
          "internalType": "bool",
          "name": "",
          "type": "bool"
        }
      ],
      "stateMutability": "view",
      "type": "function"
    },
    {
      "inputs": [
        {
          "internalType": "uint256",
          "name": "",
          "type": "uint256"
        }
      ],
      "name": "authPatient",
      "outputs": [
        {
          "internalType": "address",
          "name": "",
          "type": "address"
        }
      ],
      "stateMutability": "view",
      "type": "function"
    },
    {
      "inputs": [
        {
          "internalType": "string",
          "name": "_doctorId",
          "type": "string"
        }
      ],
      "name": "getMedicalInfoDoctor",
      "outputs": [
        {
          "internalType": "string",
          "name": "",
          "type": "string"
        },
        {
          "internalType": "string",
          "name": "",
          "type": "string"
        },
        {
          "internalType": "string",
          "name": "",
          "type": "string"
        }
      ],
      "stateMutability": "view",
      "type": "function"
    },
    {
      "inputs": [
        {
          "internalType": "uint256",
          "name": "_patientId",
          "type": "uint256"
        }
      ],
      "name": "getMedicalInfoPatient",
      "outputs": [
        {
          "internalType": "string",
          "name": "",
          "type": "string"
        },
        {
          "internalType": "string",
          "name": "",
          "type": "string"
        },
        {
          "internalType": "string",
          "name": "",
          "type": "string"
        },
        {
          "internalType": "string",
          "name": "",
          "type": "string"
        },
        {
          "internalType": "string",
          "name": "",
          "type": "string"
        }
      ],
      "stateMutability": "view",
      "type": "function"
    },
    {
      "inputs": [
        {
          "internalType": "uint256",
          "name": "_patientId",
          "type": "uint256"
        }
      ],
      "name": "getMedicalRecords",
      "outputs": [
        {
          "internalType": "string",
          "name": "",
          "type": "string"
        },
        {
          "internalType": "string",
          "name": "",
          "type": "string"
        },
        {
          "internalType": "string",
          "name": "",
          "type": "string"
        },
        {
          "internalType": "string",
          "name": "",
          "type": "string"
        }
      ],
      "stateMutability": "view",
      "type": "function"
    },
    {
      "inputs": [],
      "name": "owner",
      "outputs": [
        {
          "internalType": "address",
          "name": "",
          "type": "address"
        }
      ],
      "stateMutability": "view",
      "type": "function"
    },
    {
      "inputs": [
        {
          "internalType": "address",
          "name": "_doctorAddress",
          "type": "address"
        }
      ],
      "name": "removeAuthorisedDoctor",
      "outputs": [],
      "stateMutability": "nonpayable",
      "type": "function"
    }
  ],
  "bytecode": "0x60806040523480156200001157600080fd5b5060405162002667380380620026678339818101604052810190620000379190620002c3565b336000806101000a81548173ffffffffffffffffffffffffffffffffffffffff021916908373ffffffffffffffffffffffffffffffffffffffff16021790555060018060008060009054906101000a900473ffffffffffffffffffffffffffffffffffffffff1673ffffffffffffffffffffffffffffffffffffffff1673ffffffffffffffffffffffffffffffffffffffff16815260200190815260200160002060006101000a81548160ff02191690831515021790555082600360006101000a81548173ffffffffffffffffffffffffffffffffffffffff021916908373ffffffffffffffffffffffffffffffffffffffff16021790555081600460006101000a81548173ffffffffffffffffffffffffffffffffffffffff021916908373ffffffffffffffffffffffffffffffffffffffff16021790555080600560006101000a81548173ffffffffffffffffffffffffffffffffffffffff021916908373ffffffffffffffffffffffffffffffffffffffff1602179055505050506200031f565b600080fd5b600073ffffffffffffffffffffffffffffffffffffffff82169050919050565b6000620001ed82620001c0565b9050919050565b60006200020182620001e0565b9050919050565b6200021381620001f4565b81146200021f57600080fd5b50565b600081519050620002338162000208565b92915050565b60006200024682620001e0565b9050919050565b620002588162000239565b81146200026457600080fd5b50565b60008151905062000278816200024d565b92915050565b60006200028b82620001e0565b9050919050565b6200029d816200027e565b8114620002a957600080fd5b50565b600081519050620002bd8162000292565b92915050565b600080600060608486031215620002df57620002de620001bb565b5b6000620002ef8682870162000222565b9350506020620003028682870162000267565b92505060406200031586828701620002ac565b9150509250925092565b612338806200032f6000396000f3fe608060405234801561001057600080fd5b50600436106100a95760003560e01c80636daaae69116100715780636daaae691461014e5780637dc86e15146101825780638da5cb5b1461019e5780639b781210146101bc578063ba8c23aa146101ee578063ffbcfac21461021e576100a9565b8063116a1ea2146100ae57806321670702146100ca57806325da1c77146100e657806342d6883814610102578063622276bc1461011e575b600080fd5b6100c860048036038101906100c391906119b7565b610251565b005b6100e460048036038101906100df9190611b22565b610497565b005b61010060048036038101906100fb9190611c50565b6108dd565b005b61011c60048036038101906101179190611c50565b6109ca565b005b61013860048036038101906101339190611c7d565b610ab3565b6040516101459190611cb9565b60405180910390f35b61016860048036038101906101639190611c7d565b610ae6565b604051610179959493929190611d53565b60405180910390f35b61019c60048036038101906101979190611dc9565b610f24565b005b6101a66111fa565b6040516101b39190611cb9565b60405180910390f35b6101d660048036038101906101d19190611eb4565b61121e565b6040516101e593929190611efd565b60405180910390f35b61020860048036038101906102039190611c50565b6114a6565b6040516102159190611f64565b60405180910390f35b61023860048036038101906102339190611c7d565b6114c6565b6040516102489493929190611f7f565b60405180910390f35b60011515600160003373ffffffffffffffffffffffffffffffffffffffff1673ffffffffffffffffffffffffffffffffffffffff16815260200190815260200160002060009054906101000a900460ff161515146102e4576040517f08c379a00000000000000000000000000000000000000000000000000000000081526004016102db9061202c565b60405180910390fd5b600460009054906101000a900473ffffffffffffffffffffffffffffffffffffffff1673ffffffffffffffffffffffffffffffffffffffff16637d2a521a84866040518363ffffffff1660e01b815260040161034192919061204c565b600060405180830381600087803b15801561035b57600080fd5b505af115801561036f573d6000803e3d6000fd5b50505050600460009054906101000a900473ffffffffffffffffffffffffffffffffffffffff1673ffffffffffffffffffffffffffffffffffffffff16630714938484846040518363ffffffff1660e01b81526004016103d092919061204c565b600060405180830381600087803b1580156103ea57600080fd5b505af11580156103fe573d6000803e3d6000fd5b50505050600460009054906101000a900473ffffffffffffffffffffffffffffffffffffffff1673ffffffffffffffffffffffffffffffffffffffff1663f798d40284836040518363ffffffff1660e01b815260040161045f92919061204c565b600060405180830381600087803b15801561047957600080fd5b505af115801561048d573d6000803e3d6000fd5b5050505050505050565b60011515600160003373ffffffffffffffffffffffffffffffffffffffff1673ffffffffffffffffffffffffffffffffffffffff16815260200190815260200160002060009054906101000a900460ff1615151461052a576040517f08c379a00000000000000000000000000000000000000000000000000000000081526004016105219061202c565b60405180910390fd5b600360009054906101000a900473ffffffffffffffffffffffffffffffffffffffff1673ffffffffffffffffffffffffffffffffffffffff166386c85619876040518263ffffffff1660e01b81526004016105859190612092565b600060405180830381600087803b15801561059f57600080fd5b505af11580156105b3573d6000803e3d6000fd5b50505050600360009054906101000a900473ffffffffffffffffffffffffffffffffffffffff1673ffffffffffffffffffffffffffffffffffffffff1663d3cd424a87896040518363ffffffff1660e01b81526004016106149291906120ad565b600060405180830381600087803b15801561062e57600080fd5b505af1158015610642573d6000803e3d6000fd5b50505050600360009054906101000a900473ffffffffffffffffffffffffffffffffffffffff1673ffffffffffffffffffffffffffffffffffffffff1663ea107ae187876040518363ffffffff1660e01b81526004016106a39291906120ad565b600060405180830381600087803b1580156106bd57600080fd5b505af11580156106d1573d6000803e3d6000fd5b50505050600360009054906101000a900473ffffffffffffffffffffffffffffffffffffffff1673ffffffffffffffffffffffffffffffffffffffff16631360a5d887866040518363ffffffff1660e01b81526004016107329291906120ad565b600060405180830381600087803b15801561074c57600080fd5b505af1158015610760573d6000803e3d6000fd5b50505050600360009054906101000a900473ffffffffffffffffffffffffffffffffffffffff1673ffffffffffffffffffffffffffffffffffffffff1663a9b244f687856040518363ffffffff1660e01b81526004016107c19291906120ad565b600060405180830381600087803b1580156107db57600080fd5b505af11580156107ef573d6000803e3d6000fd5b50505050600360009054906101000a900473ffffffffffffffffffffffffffffffffffffffff1673ffffffffffffffffffffffffffffffffffffffff1663932cf1bd87846040518363ffffffff1660e01b81526004016108509291906120ad565b600060405180830381600087803b15801561086a57600080fd5b505af115801561087e573d6000803e3d6000fd5b50505050806002600088815260200190815260200160002060006101000a81548173ffffffffffffffffffffffffffffffffffffffff021916908373ffffffffffffffffffffffffffffffffffffffff16021790555050505050505050565b60011515600160003373ffffffffffffffffffffffffffffffffffffffff1673ffffffffffffffffffffffffffffffffffffffff16815260200190815260200160002060009054906101000a900460ff16151514610970576040517f08c379a00000000000000000000000000000000000000000000000000000000081526004016109679061202c565b60405180910390fd5b60018060008373ffffffffffffffffffffffffffffffffffffffff1673ffffffffffffffffffffffffffffffffffffffff16815260200190815260200160002060006101000a81548160ff02191690831515021790555050565b60008054906101000a900473ffffffffffffffffffffffffffffffffffffffff1673ffffffffffffffffffffffffffffffffffffffff163373ffffffffffffffffffffffffffffffffffffffff1614610a58576040517f08c379a0000000000000000000000000000000000000000000000000000000008152600401610a4f9061214f565b60405180910390fd5b6000600160008373ffffffffffffffffffffffffffffffffffffffff1673ffffffffffffffffffffffffffffffffffffffff16815260200190815260200160002060006101000a81548160ff02191690831515021790555050565b60026020528060005260406000206000915054906101000a900473ffffffffffffffffffffffffffffffffffffffff1681565b60608060608060608560011515600160003373ffffffffffffffffffffffffffffffffffffffff1673ffffffffffffffffffffffffffffffffffffffff16815260200190815260200160002060009054906101000a900460ff1615151480610bac57503373ffffffffffffffffffffffffffffffffffffffff166002600083815260200190815260200160002060009054906101000a900473ffffffffffffffffffffffffffffffffffffffff1673ffffffffffffffffffffffffffffffffffffffff16145b610beb576040517f08c379a0000000000000000000000000000000000000000000000000000000008152600401610be290612207565b60405180910390fd5b600360009054906101000a900473ffffffffffffffffffffffffffffffffffffffff1673ffffffffffffffffffffffffffffffffffffffff1663d142c3d3886040518263ffffffff1660e01b8152600401610c469190612092565b600060405180830381865afa158015610c63573d6000803e3d6000fd5b505050506040513d6000823e3d601f19601f82011682018060405250810190610c8c9190612297565b600360009054906101000a900473ffffffffffffffffffffffffffffffffffffffff1673ffffffffffffffffffffffffffffffffffffffff16634c10ffbc896040518263ffffffff1660e01b8152600401610ce79190612092565b600060405180830381865afa158015610d04573d6000803e3d6000fd5b505050506040513d6000823e3d601f19601f82011682018060405250810190610d2d9190612297565b600360009054906101000a900473ffffffffffffffffffffffffffffffffffffffff1673ffffffffffffffffffffffffffffffffffffffff166372b26ab58a6040518263ffffffff1660e01b8152600401610d889190612092565b600060405180830381865afa158015610da5573d6000803e3d6000fd5b505050506040513d6000823e3d601f19601f82011682018060405250810190610dce9190612297565b600360009054906101000a900473ffffffffffffffffffffffffffffffffffffffff1673ffffffffffffffffffffffffffffffffffffffff166358c860ec8b6040518263ffffffff1660e01b8152600401610e299190612092565b600060405180830381865afa158015610e46573d6000803e3d6000fd5b505050506040513d6000823e3d601f19601f82011682018060405250810190610e6f9190612297565b600360009054906101000a900473ffffffffffffffffffffffffffffffffffffffff1673ffffffffffffffffffffffffffffffffffffffff16632a011e5f8c6040518263ffffffff1660e01b8152600401610eca9190612092565b600060405180830381865afa158015610ee7573d6000803e3d6000fd5b505050506040513d6000823e3d601f19601f82011682018060405250810190610f109190612297565b955095509550955095505091939590929450565b60011515600160003373ffffffffffffffffffffffffffffffffffffffff1673ffffffffffffffffffffffffffffffffffffffff16815260200190815260200160002060009054906101000a900460ff16151514610fb7576040517f08c379a0000000000000000000000000000000000000000000000000000000008152600401610fae9061202c565b60405180910390fd5b600560009054906101000a900473ffffffffffffffffffffffffffffffffffffffff1673ffffffffffffffffffffffffffffffffffffffff1663ec7fc5b886866040518363ffffffff1660e01b81526004016110149291906120ad565b600060405180830381600087803b15801561102e57600080fd5b505af1158015611042573d6000803e3d6000fd5b50505050600560009054906101000a900473ffffffffffffffffffffffffffffffffffffffff1673ffffffffffffffffffffffffffffffffffffffff166384f7e77e86856040518363ffffffff1660e01b81526004016110a39291906120ad565b600060405180830381600087803b1580156110bd57600080fd5b505af11580156110d1573d6000803e3d6000fd5b50505050600560009054906101000a900473ffffffffffffffffffffffffffffffffffffffff1673ffffffffffffffffffffffffffffffffffffffff1663d48e747786846040518363ffffffff1660e01b81526004016111329291906120ad565b600060405180830381600087803b15801561114c57600080fd5b505af1158015611160573d6000803e3d6000fd5b50505050600560009054906101000a900473ffffffffffffffffffffffffffffffffffffffff1673ffffffffffffffffffffffffffffffffffffffff166306b6193486836040518363ffffffff1660e01b81526004016111c19291906120ad565b600060405180830381600087803b1580156111db57600080fd5b505af11580156111ef573d6000803e3d6000fd5b505050505050505050565b60008054906101000a900473ffffffffffffffffffffffffffffffffffffffff1681565b606080606060011515600160003373ffffffffffffffffffffffffffffffffffffffff1673ffffffffffffffffffffffffffffffffffffffff16815260200190815260200160002060009054906101000a900460ff161515146112b6576040517f08c379a00000000000000000000000000000000000000000000000000000000081526004016112ad9061202c565b60405180910390fd5b600460009054906101000a900473ffffffffffffffffffffffffffffffffffffffff1673ffffffffffffffffffffffffffffffffffffffff16632d8318ec856040518263ffffffff1660e01b815260040161131191906122e0565b600060405180830381865afa15801561132e573d6000803e3d6000fd5b505050506040513d6000823e3d601f19601f820116820180604052508101906113579190612297565b600460009054906101000a900473ffffffffffffffffffffffffffffffffffffffff1673ffffffffffffffffffffffffffffffffffffffff1663aa552991866040518263ffffffff1660e01b81526004016113b291906122e0565b600060405180830381865afa1580156113cf573d6000803e3d6000fd5b505050506040513d6000823e3d601f19601f820116820180604052508101906113f89190612297565b600460009054906101000a900473ffffffffffffffffffffffffffffffffffffffff1673ffffffffffffffffffffffffffffffffffffffff16631de11e58876040518263ffffffff1660e01b815260040161145391906122e0565b600060405180830381865afa158015611470573d6000803e3d6000fd5b505050506040513d6000823e3d601f19601f820116820180604052508101906114999190612297565b9250925092509193909250565b60016020528060005260406000206000915054906101000a900460ff1681565b6060806060808460011515600160003373ffffffffffffffffffffffffffffffffffffffff1673ffffffffffffffffffffffffffffffffffffffff16815260200190815260200160002060009054906101000a900460ff161515148061158a57503373ffffffffffffffffffffffffffffffffffffffff166002600083815260200190815260200160002060009054906101000a900473ffffffffffffffffffffffffffffffffffffffff1673ffffffffffffffffffffffffffffffffffffffff16145b6115c9576040517f08c379a00000000000000000000000000000000000000000000000000000000081526004016115c090612207565b60405180910390fd5b600560009054906101000a900473ffffffffffffffffffffffffffffffffffffffff1673ffffffffffffffffffffffffffffffffffffffff1663b0cdce4c876040518263ffffffff1660e01b81526004016116249190612092565b600060405180830381865afa158015611641573d6000803e3d6000fd5b505050506040513d6000823e3d601f19601f8201168201806040525081019061166a9190612297565b600560009054906101000a900473ffffffffffffffffffffffffffffffffffffffff1673ffffffffffffffffffffffffffffffffffffffff1663ea2f14b1886040518263ffffffff1660e01b81526004016116c59190612092565b600060405180830381865afa1580156116e2573d6000803e3d6000fd5b505050506040513d6000823e3d601f19601f8201168201806040525081019061170b9190612297565b600560009054906101000a900473ffffffffffffffffffffffffffffffffffffffff1673ffffffffffffffffffffffffffffffffffffffff1663bb0f9e79896040518263ffffffff1660e01b81526004016117669190612092565b600060405180830381865afa158015611783573d6000803e3d6000fd5b505050506040513d6000823e3d601f19601f820116820180604052508101906117ac9190612297565b600560009054906101000a900473ffffffffffffffffffffffffffffffffffffffff1673ffffffffffffffffffffffffffffffffffffffff16632834f8fc8a6040518263ffffffff1660e01b81526004016118079190612092565b600060405180830381865afa158015611824573d6000803e3d6000fd5b505050506040513d6000823e3d601f19601f8201168201806040525081019061184d9190612297565b9450945094509450509193509193565b6000604051905090565b600080fd5b600080fd5b600080fd5b600080fd5b6000601f19601f8301169050919050565b7f4e487b7100000000000000000000000000000000000000000000000000000000600052604160045260246000fd5b6118c48261187b565b810181811067ffffffffffffffff821117156118e3576118e261188c565b5b80604052505050565b60006118f661185d565b905061190282826118bb565b919050565b600067ffffffffffffffff8211156119225761192161188c565b5b61192b8261187b565b9050602081019050919050565b82818337600083830152505050565b600061195a61195584611907565b6118ec565b90508281526020810184848401111561197657611975611876565b5b611981848285611938565b509392505050565b600082601f83011261199e5761199d611871565b5b81356119ae848260208601611947565b91505092915050565b600080600080608085870312156119d1576119d0611867565b5b600085013567ffffffffffffffff8111156119ef576119ee61186c565b5b6119fb87828801611989565b945050602085013567ffffffffffffffff811115611a1c57611a1b61186c565b5b611a2887828801611989565b935050604085013567ffffffffffffffff811115611a4957611a4861186c565b5b611a5587828801611989565b925050606085013567ffffffffffffffff811115611a7657611a7561186c565b5b611a8287828801611989565b91505092959194509250565b6000819050919050565b611aa181611a8e565b8114611aac57600080fd5b50565b600081359050611abe81611a98565b92915050565b600073ffffffffffffffffffffffffffffffffffffffff82169050919050565b6000611aef82611ac4565b9050919050565b611aff81611ae4565b8114611b0a57600080fd5b50565b600081359050611b1c81611af6565b92915050565b600080600080600080600060e0888a031215611b4157611b40611867565b5b600088013567ffffffffffffffff811115611b5f57611b5e61186c565b5b611b6b8a828b01611989565b9750506020611b7c8a828b01611aaf565b965050604088013567ffffffffffffffff811115611b9d57611b9c61186c565b5b611ba98a828b01611989565b955050606088013567ffffffffffffffff811115611bca57611bc961186c565b5b611bd68a828b01611989565b945050608088013567ffffffffffffffff811115611bf757611bf661186c565b5b611c038a828b01611989565b93505060a088013567ffffffffffffffff811115611c2457611c2361186c565b5b611c308a828b01611989565b92505060c0611c418a828b01611b0d565b91505092959891949750929550565b600060208284031215611c6657611c65611867565b5b6000611c7484828501611b0d565b91505092915050565b600060208284031215611c9357611c92611867565b5b6000611ca184828501611aaf565b91505092915050565b611cb381611ae4565b82525050565b6000602082019050611cce6000830184611caa565b92915050565b600081519050919050565b600082825260208201905092915050565b60005b83811015611d0e578082015181840152602081019050611cf3565b60008484015250505050565b6000611d2582611cd4565b611d2f8185611cdf565b9350611d3f818560208601611cf0565b611d488161187b565b840191505092915050565b600060a0820190508181036000830152611d6d8188611d1a565b90508181036020830152611d818187611d1a565b90508181036040830152611d958186611d1a565b90508181036060830152611da98185611d1a565b90508181036080830152611dbd8184611d1a565b90509695505050505050565b600080600080600060a08688031215611de557611de4611867565b5b6000611df388828901611aaf565b955050602086013567ffffffffffffffff811115611e1457611e1361186c565b5b611e2088828901611989565b945050604086013567ffffffffffffffff811115611e4157611e4061186c565b5b611e4d88828901611989565b935050606086013567ffffffffffffffff811115611e6e57611e6d61186c565b5b611e7a88828901611989565b925050608086013567ffffffffffffffff811115611e9b57611e9a61186c565b5b611ea788828901611989565b9150509295509295909350565b600060208284031215611eca57611ec9611867565b5b600082013567ffffffffffffffff811115611ee857611ee761186c565b5b611ef484828501611989565b91505092915050565b60006060820190508181036000830152611f178186611d1a565b90508181036020830152611f2b8185611d1a565b90508181036040830152611f3f8184611d1a565b9050949350505050565b60008115159050919050565b611f5e81611f49565b82525050565b6000602082019050611f796000830184611f55565b92915050565b60006080820190508181036000830152611f998187611d1a565b90508181036020830152611fad8186611d1a565b90508181036040830152611fc18185611d1a565b90508181036060830152611fd58184611d1a565b905095945050505050565b7f4e6f74206120617574686f726973656420646f63746f72000000000000000000600082015250565b6000612016601783611cdf565b915061202182611fe0565b602082019050919050565b6000602082019050818103600083015261204581612009565b9050919050565b600060408201905081810360008301526120668185611d1a565b9050818103602083015261207a8184611d1a565b90509392505050565b61208c81611a8e565b82525050565b60006020820190506120a76000830184612083565b92915050565b60006040820190506120c26000830185612083565b81810360208301526120d48184611d1a565b90509392505050565b7f596f752077696c6c206e65656420746f20636f6e7461637420746865206f776e60008201527f6572000000000000000000000000000000000000000000000000000000000000602082015250565b6000612139602283611cdf565b9150612144826120dd565b604082019050919050565b600060208201905081810360008301526121688161212c565b9050919050565b7f596f752063616e6e6f7420616363657373207265636f7264732c20596f75206360008201527f616e206f6e6c792061636365737320796f7572206f776e207265636f7264732060208201527f6f722c20596f75206861766520746f206265206120646f63746f722e00000000604082015250565b60006121f1605c83611cdf565b91506121fc8261216f565b606082019050919050565b60006020820190508181036000830152612220816121e4565b9050919050565b600061223a61223584611907565b6118ec565b90508281526020810184848401111561225657612255611876565b5b612261848285611cf0565b509392505050565b600082601f83011261227e5761227d611871565b5b815161228e848260208601612227565b91505092915050565b6000602082840312156122ad576122ac611867565b5b600082015167ffffffffffffffff8111156122cb576122ca61186c565b5b6122d784828501612269565b91505092915050565b600060208201905081810360008301526122fa8184611d1a565b90509291505056fea264697066735822122045a2255af53f98cf7cd29e7251bbcd4aada8544ec71421b4e8bddf2e7707a9ca64736f6c63430008130033",
  "linkReferences": {},
  "deployedLinkReferences": {}
}